:100000000C9445060C9462060C9462060C948429A8
:100010000C9462060C9462060C9462060C946206C0
:100020000C9462060C9462060C9442130C946317B1
:100030000C9465220C9462060C9462060C94620681
:100040000C9462060C9462060C9462060C94620690
:100050000C9462060C941B140C9462060C946206B9
:100060000C9462060C9462060C9462060C94620670
:100070000C9462060C9462060C9462060C94620660
:100080000C9462060C9462060C9462060C94620650
:100090000C9462060C9462060C9462060C94620640
:1000A0000C9462060C9462060C94620620202020B8
:1000B0006162636465666768696A6B6C6D6E6F70B8
:1000C0007172737475767778797A31323334353664
:1000D00037383930524542545F2D3D5B5D5C233BE0
:1000E00027602C2E2F202020000014001A00090069
:1000F00013000500000004281524162117220A0009
:1001000000001D001B000600070019000000000091
:10011000000029432C422B41000034001C00180031
:100120000F000D00000012280C24082111221000DD
:1001300000003800370036000B000E000000000001
:1001400000004C462A452844000000000000000042
:10015000000000000000E300E200E000E100000019
:10016000000000000000000000000000000000008F
:10017000000000000000000000000000000000007F
:100180000000000000004F00520051005000737C3E
:1001900000004D004E004B004A00490000000000E6
:1001A00000004C002A0028000000000000000000B1
:1001B000000000000000E300E200E000E1000000B9
:1001C000000000000000000000000000000000002F
:1001D000000000000000000000000000000000001F
:1001E000000000000000D000CD00CE00CF000000D5
:1001F0000000DC00D900DA00DB0000000000000095
:100200000000D300D200D100000000000000000078
:1002100000000000000000000000000000000000DE
:1002200000000000000000000000000000000000CE
:1002300000000000000000000000000000000000BE
:10024000000000000000AB00A900AA00AC00000004
:10025000000000000000000000000000000000009E
:100260000000A800AE00AD0000002F002400250013
:1002700026003000000033002100220023002E0061
:10028000000035001E001F002000310000000000AB
:100290000000370027002D000000000000000000D3
:1002A000000000000000E300E200E000E1000000C8
:1002B000000000000000000000000000000000003E
:1002C000000000000000000000002F0224022502B0
:1002D00026023002000033022102220223022E02F3
:1002E000000035021E021F02200231020000000041
:1002F0000000260227022D0200000000000000007E
:10030000000000000000E300E200E000E100000067
:1003100000000000000000000000000000000000DD
:100320000000000000000000000045004000410007
:1003300042004600000044003D003E003F004700F0
:10034000000043003A003B003C0048000000000071
:1003500000000000000000000000007C0000000021
:10036000000000000000000000000000000000008D
:1003700000000052075200000000000000000000D2
:1003800000000000000000000000290014001A0016
:1003900008003A0000002B000400160007000900C6
:1003A0000000E000E100100006000E000000000068
:1003B00000001E001F0020000000000000000000E0
:1003C000000000000000000000000000000000002D
:1003D00000000052000000000000000000000000CB
:1003E000000000000000000000002C0010001A00B7
:1003F0003800000000002B000400160007000B006E
:1004000000001E001F00200021002200000000004C
:10041000000023002400250000002E003D003C00C9
:100420003B003A000000000000000D000C00060038
:10043000000000520000000000000000000000006A
:10044000000042003E00290000DA0281FFD9F1DB02
:1004500020A4A62EAF00A0C0D30000A1C8D30000E6
:10046000AED580A81F408D142000556E64656600CF
:1004700041646A757374005261697365004C6F77EB
:1004800065720044656661756C74004C61796572D3
:100490003A20003A002C206B00780080818283840F
:1004A00085868788898A8B8C8D8E8F909192939484
:1004B000A0A1A2A3A4A5A6A7A8A9AAABACADAEAFC4
:1004C000B0B1B2B3B4C0C1C2C3C4C5C6C7C8C9CA3B
:1004D000CBCCCDCECFD0D1D2D3D4000001010101FD
:1004E00001010101010202020202020202020303EF
:1004F00003030303030304040404040404050505BF
:100500000505060606060607070707070808080880
:10051000090909090A0A0A0B0B0B0C0C0C0D0D0D2D
:100520000E0E0E0F0F0F10101111111212131314C3
:1005300014151516161717181819191A1A1B1B1C3B
:100540001D1D1E1E1F202021222223242425262695
:10055000272829292A2B2C2D2D2E2F3031323233CA
:100560003435363738393A3B3C3D3E3F40414243D3
:100570004445464748494A4C4D4E4F5051535455B7
:100580005658595A5B5D5E5F616264656668696B67
:100590006C6D6F7072737577787A7B7D7E808283E5
:1005A0008587888A8C8E8F91939596989A9C9EA029
:1005B000A2A3A5A7A9ABADAFB1B3B5B7BABCBEC036
:1005C000C2C4C6C9CBCDCFD1D4D6D8DBDDDFE2E4FF
:1005D000E7E9EBEEF0F3F5F8FAFDFF00AF00AE054A
:1005E000010902A10185020901A1000509190129DA
:1005F00008150025019508750181020501093009DA
:10060000311581257F9502750881060938158125E8
:100610007F950175088106050C0A38021581257F32
:10062000950175088106C0C005010980A1018503F7
:1006300019012AB700150126B70095017510810030
:10064000C0050C0901A101850419012AA0021501A8
:1006500026A002950175108100C005010906A101BF
:100660008506050719E029E715002501950875019C
:1006700081020507190029EF1500250195F0750184
:100680008102050819012905950575019102950159
:1006900075039101C005010906A101050719E029AB
:1006A000E7150025019508750181029501750881FE
:1006B000010507190029FF150026FF00950675089A
:1006C0008100050819012905150025019505750109
:1006D0009102950175039101C009023B00020100DE
:1006E000A0FA090400000103010100092111010021
:1006F00001224400070581030800010904010001EB
:100700000300000009211101000122B60007058243
:1007100003200001120100020000000853460100FE
:100720000100010200010C0343006F0072006E0023
:1007300065000000100366006F006F007300740016
:1007400061006E00000004030904000000000000C6
:100750003E5B4F5B3E003E6B4F6B3E001C3E7C3E63
:100760001C00183C7E3C18001C577D571C001C5E6A
:100770007F5E1C0000183C180000FFE7C3E7FF0085
:10078000001824180000FFE7DBE7FF0030483A06B6
:100790000E00262979292600407F05050700407FA5
:1007A00005253F005A3CE73C5A007F3E1C1C0800D0
:1007B000081C1C3E7F0014227F2214005F5F005F34
:1007C0005F0006097F017F00006689956A0060600E
:1007D0006060600094A2FFA2940008047E040800F8
:1007E00010207E20100008082A1C0800081C2A0877
:1007F00008001E10101010000C1E0C1E0C003038CB
:100800003E383000060E3E0E0600000000000000DC
:1008100000005F000000000700070000147F147F45
:100820001400242A7F2A1200231308646200364928
:1008300056205000000807030000001C2241000061
:100840000041221C00002A1C7F1C2A0008083E08C8
:100850000800008070300000080808080800000048
:10086000606000002010080402003E5149453E002F
:1008700000427F4000007249494946002141494DEC
:1008800033001814127F10002745454539003C4AB3
:1008900049493100412111090700364949493600CB
:1008A000464949291E0000001400000000403400A1
:1008B0000000000814224100141414141400004114
:1008C000221408000201590906003E415D594E00FC
:1008D0007C1211127C007F49494936003E4141415A
:1008E00022007F4141413E007F49494941007F0943
:1008F000090901003E41415173007F0808087F004B
:1009000000417F4100002040413F01007F08142248
:1009100041007F40404040007F021C027F007F0476
:1009200008107F003E4141413E007F090909060051
:100930003E4151215E007F09192946002649494957
:10094000320003017F0103003F4040403F001F2071
:1009500040201F003F4038403F00631408146300EC
:100960000304780403006159494D4300007F41416D
:100970004100020408102000004141417F000402B0
:10098000010204004040404040000003070800000E
:100990002054547840007F2844443800384444446C
:1009A0002800384444287F00385454541800000864
:1009B0007E0902001824241C78007F0804047800B3
:1009C00000447D4000002040403D00007F1028444E
:1009D000000000417F4000007C04780478007C081F
:1009E000040478003844444438007C182424180057
:1009F000182424187C007C0804040800485454542B
:100A0000240004043F4424003C4040207C001C207F
:100A100040201C003C4030403C004428102844004A
:100A20004C9090907C004464544C44000008364143
:100A300000000000770000000041360800000201BD
:100A4000020402003C2623263C00000000000000B7
:100A500000000000000000000000C0E0F0F8F818FE
:100A600000C0F0FCFEFFFFFFFFFFFFFF7E00000065
:100A700000000000000080C0E0E0E0E0E0E0E0E036
:100A8000C0800000000080C0E0E0E0E0E0E0E0E0E6
:100A9000C080000000E0E0C0C0E0E0E0E00000E076
:100AA000E0C0C0E0E0E0E0E0C0800000000080C006
:100AB000E0E0E0E0E0E0E0E0C080000000000000F6
:100AC0000000000000000000E0F0F0F0E0ECEEF7C5
:100AD000F37020007C7C7C7E007E7E7E7F7F7F00AA
:100AE0000080C0E07E5B4F5BFEC00000C000DCD732
:100AF000DEDEDED7DC00C0000000000000000000E9
:100B000000000000000000000000000000000000E5
:100B1000000000F8FCFEFFE000FFFFFFFFFFFF808A
:100B2000FFFFFFFFFFFFFFFFFF1F070100000000A7
:100B30000000000000FFFFFF8100000000000081B6
:100B4000C3C3C30000FFFFFF81000000000000815D
:100B5000FFFFFF0000FFFFFF01000000000000FF9B
:100B6000FFFF010000000001FFFFFF0000FFFFFF8B
:100B70009D1C1C1C1C1C1C9DDFDFDF0000000000F6
:100B800000000000000000000F1F3F7F7F7F7F7F7D
:100B90003F1E0C001F1F1F3F003F3F3F7F7F7F0016
:100BA000307B7F7830202030787F3B0003000F7F40
:100BB0000F0F0F7F0F000300000000000000000077
:100BC0000000000000000000000000000000000025
:100BD000000000030F1F3F3F3F3F1F1F3F3F7F7F2E
:100BE0007F3F3F1F3F7F7F7F7F7C7878381C0F00DF
:100BF00000000000000001030707070707070707B9
:100C000003010000000001030707070707070707A4
:100C100003010000000707070000000000000007B4
:100C2000070700000000000007070700000001039D
:100C30000707070707070707030100000000000078
:100C400000000000000000000000000000000000A4
:100C50000000000000000000000000000000000094
:100C60000000000000000000000000000000000084
:100C70000000000000000000000000000000000074
:100C80000000000000000000000011241FBECFEF94
:100C9000DAE0DEBFCDBF11E0A0E0B1E0ECE6F8E5C0
:100CA00002C005900D92AA38B107D9F725E0AAE84D
:100CB000B1E001C01D92A43BB207E1F70E948C2273
:100CC0000C94E02B0C940000482F2091A5039091E8
:100CD0006C0357E0291302C080E0089530E0529F72
:100CE000F001539FF00D1124E359FC4F81816813EB
:100CF00006C08081481303C085818111EECF2F5F2C
:100D00003F4F2770E7CFFC01AC014C5F5F4F8FEF87
:100D100091E32191822728E030E087FF09C0880F06
:100D2000892721503109C9F7E417F50791F708958C
:100D3000880FF7CFE8EDF0E080818E7F80831092FE
:100D4000E2001092DA001092E100A0EEB0E08C9187
:100D500081608C9380818F77808319BCA7EDB0E090
:100D60008C918E7F8C9380818F7E8083109255032F
:100D700008952091E4003091E50095E6A9012091C5
:100D8000EC00822F817020FF06C08091E80080FF78
:100D900006C080E008952091E80022FD1AC08091ED
:100DA0006203882389F0853089F08091EB0085FD0E
:100DB0000FC02091E4003091E50042175307F9F28B
:100DC0009150E1F684E0089582E0089583E008956B
:100DD00081E008958091640387FF13C08091E8004B
:100DE00082FF06C08091E8008B778093E80004C002
:100DF000809162038111F2CF08958091620388236C
:100E0000D9F38091E80080FFF8CF8091E8008E77D9
:100E1000ECCF982F9093E900242F762F50E089177C
:100E200031F07091EC002091ED005091F00021FD27
:100E300007C09F5F973071F78093E90081E00895C4
:100E40003091EB003E7F3093EB003091ED003D7F21
:100E50003093ED003091EB0031603093EB007093F4
:100E6000EC002093ED005093F0002091EE0027FD60
:100E7000E0CF80E00895B0E0A0E0E1E4F7E00C947A
:100E8000BE2AC8EDD0E088818F7E8883E7EDF0E050
:100E900080818160808384E082BF81E080935503FC
:100EA00088818E7F888302EE10E0F8011082109214
:100EB000DA0081EEC82ED12CF601108288818F775E
:100EC000888388818068888388818F7D888319BC26
:100ED00010926203109263031092610310926003F8
:100EE00090EEE92EF12CF70180818B7F8083888141
:100EF0008160888342E060E080E00E940907F6019B
:100F000080818E7F8083F8018081816080838081F1
:100F100088608083F70180818E7F808388818061F3
:100F20008883CDB7DEB7E8E00C94DA2AFC01809123
:100F30006A0390916B0386179707A0F061157105FE
:100F400029F49091E8009E779093E80090E0611575
:100F5000710551F4911108C08091E80082FF34C0FE
:100F600080E00895BC01F2CF809162038823C1F133
:100F70008530C1F18091E80083FD30C08091E800A8
:100F800082FDEACF8091E80080FFE1CF8091F300FD
:100F90002091F200382F6115710519F028303105C4
:100FA00058F091E02830310509F090E02091E800F8
:100FB0002E772093E800CBCF81918093F100615090
:100FC00071092F5F3F4FE7CF80916203882341F083
:100FD000853041F08091E80083FFBECF81E0089525
:100FE00082E0089583E0089580915703089587E78C
:100FF00097E7909301088093000888E19AE00FB684
:10100000F894A895809360000FBE90936000FFCF86
:101010002FB7F8946091510370915203809153035C
:10102000909154032FBF089590913A019923D1F0E4
:1010300090914E0397FF16C0E82FE695E695E6954A
:10104000EE31E0F4F0E0EC56FE4F282F277081E0FF
:1010500090E001C0880F2A95EAF780959281892354
:1010600082830895EEE8F1E09191891303C0DF01D6
:1010700011971C9291E0E439F907B1F70895909126
:101080003A019923C1F090914E0397FF14C0E82FC5
:10109000E695E695E695EE31F8F4F0E0EC56FE4F75
:1010A000877021E030E001C0220F8A95EAF7828143
:1010B000822B82830895AEE8B1E0EFEF90E02D91AE
:1010C000821751F0EF3F19F4211101C0E92F9F5F02
:1010D0009630A9F7EF3F09F408950E2E000CFF0B90
:1010E000E457FE4FE6CFA3E0B0E0E9E7F8E00C9468
:1010F000C42A20914C0330914D0328173907A1F0E1
:1011000090934D0380934C03E0914A03F0914B037D
:10111000309751F024E029839B838A830084F185F2
:10112000E02DCE01019609952396E2E00C94E02A89
:10113000A3E0B0E0EEE9F8E00C94C42A2091480363
:101140003091490328173907A1F090934903809300
:101150004803E0914A03F0914B03309751F023E0AC
:1011600029839B838A830084F185E02DCE0101963B
:1011700009952396E2E00C94E02A809146038823A7
:1011800059F0E0914A03F0914B03309729F0019018
:10119000F081E02D0995089580E0089580913B034A
:1011A00080FD16C081FD16C082FD16C080913A03F5
:1011B0008823A1F0883280F428E0829FC0011124A6
:1011C00068E270E00E94F72A862F672B39F00895B5
:1011D00082E0089584E0089588E0089581E008950C
:1011E00080913B0380FD14C081FD14C082FD16C0B8
:1011F00080913903882381F08E3180F420E5829F2D
:10120000C00111246EE170E00E94F72A862F089534
:1012100084E1089588E2089588E0089580E50895BE
:10122000282F35EB2303C001112497FF04C08058F9
:101230009109892F089580589F4FFBCFFA018111A2
:1012400001C0FB010995089580912B03982F9C7F85
:1012500071F480912B038370846080932B038091C1
:101260002E03893718F088E780932E03089588307D
:1012700080F7F5CF80E00895F894E82FE295EF70BD
:10128000F0E031A1282F2F7081E090E001C0880F9D
:101290002A95EAF7982F9095932391A392A1892BF1
:1012A00082A3789408950F931F9380914603882317
:1012B00029F00E9408081F910F9108950E940808C4
:1012C000009134021091350220913602309137029C
:1012D000600F711F821F931FEECF90914E0392FFFC
:1012E00010C041E0282F2471243009F040E031E0A3
:1012F000282F2871283009F030E0431711F02CE036
:10130000822793FF10C041E0282F2471243109F077
:1013100040E031E0282F2871283109F030E04317F0
:1013200011F02CE0822730914F0330FF10C051E0C4
:10133000282F2171213009F050E041E0282F287139
:10134000283009F040E0541711F029E0822731FFDE
:1013500010C041E0282F2171213109F040E031E037
:10136000282F2871283109F030E0431711F029E0C7
:10137000822794FD877E089582389105B9F1B0F4F3
:101380008133910509F47DC048F48932910509F44F
:101390006DC08A32910509F47BC0089585339105AB
:1013A00009F45FC08933910509F10895833E9105E1
:1013B000D9F138F4803E910529F1823E910579F109
:1013C0000895863E9105D9F1873E910509F43EC006
:1013D000843E910541F520914F0321FF24C0809167
:1013E0004E0384FD19C087EE90E0089520914E03CE
:1013F000237009F05AC020914F0323FF14C089E2E3
:1014000090E0089520914E0320FD38C030914F03A5
:1014100030FF09C024FF43C090E080E00895209190
:101420004E0322FDF7CF089520914E0322FD3AC0CE
:1014300030914F0330FD39C024FFF5CFEDCF20911F
:101440004E0323FFF0CF24FDE7CFCDCF20914E03F5
:1014500023FD2EC030914F0331FFEECF84EE90E09C
:10146000089520914E0325FFDECFC9CF20914E0372
:1014700025FD21C020914F0323FFD5CF89E390E0C4
:10148000D2CF20914E0326FFCECF8AE290E008957E
:1014900020914E0326FFC7CF81E390E0089583EEAD
:1014A00090E0089582EE90E0089580EE90E0089537
:1014B00086EE90E0089585E390E00895972F7830C8
:1014C000B8F46630A8F48930B0F470E026E0929F5A
:1014D000600D711D1124FB0190E3899FE00DF11D4A
:1014E0001124EE0FFF1FE851FF4F8591949108954D
:1014F00080E090E0089581E0FCCF1F93CF93DF93CD
:101500000E94BC09EC01C11580E5D807F0F5C115B2
:1015100080E4D80708F09CC0C03ED10520F5CD3C42
:10152000D10508F082C0C83AD10578F4C53AD10592
:1015300008F073C0C130D10519F1209709F1C4300A
:10154000D105F0F4D0E0C0E01BC0C33CD105D0F71A
:10155000C85AD0E0CC0FDD1FC25CDE4F0990D881A5
:10156000C02DD4640DC0C11580E2D80708F0D1C0E9
:10157000C11581E0D80708F05AC0C83ED10510F760
:10158000CE01DF91CF911F910895C03682E5D80733
:1015900018F5C03482E5D80708F06BC0C03282E588
:1015A000D80708F05FC0C11582E5D80708F497C0D6
:1015B0002C2F2695269580E2289F900111248C2FB0
:1015C0008370C1E0D0E002C0CC0FDD1F8A95E2F746
:1015D000C22BD32BDD68D4CFC03A82E5D80760F4A4
:1015E000C03882E5D80708F459C0CF71D0E0DC2FAD
:1015F000CC27C46FD06AC4CFC03C82E5D80708F4BA
:1016000062C0C03E82E5D80708F09CCFDC2FCC2713
:10161000CC27DF71C06FD06AB3CFC55AD0E0C55CAC
:10162000DE4FC881D0E0D064ABCFD065A9CF8D2F7D
:101630000E946D09182FCE0199270E94BC09C12F65
:10164000D0E0DC2FCC27CC27DF71C82BD92B98CF4B
:10165000CE0199270E94BC09CC27DF70C82BD92B5B
:10166000D06A8ECFCF71D0E0DC2FCC27C16FD06A8B
:1016700087CF2C2F26952695277080E2289F9001F2
:1016800011248C2F8370C1E0D0E002C0CC0FDD1F8D
:101690008A95E2F7C22BD32BDC6872CF2C2F2695CC
:1016A0002695277080E2289F900111248C2F83704B
:1016B000C1E0D0E002C0CC0FDD1F8A95E2F7C22B5B
:1016C000D32BDA685DCF8C2F8F710E946D09C82FE4
:1016D000D0E0DC2FCC27CC27DF71D06251CF8C2F0C
:1016E0008F710E946D0955E0D695C7955A95E1F71F
:1016F000CF70D0E0DC2FCC27282F30E084FF05C04E
:1017000044E0220F331F4A95E1F7C22BD32BD06957
:1017100037CF8D2F8F710E946D09182FCE01992719
:101720000E94BC09C12FD0E0DC2FCC27CC27DF7171
:10173000C82BD92BD2CF80959091000298239093FB
:1017400000020895809100029091D701892B909119
:10175000D601992391F0892B90913A01992371F048
:1017600090914E0397FF0AC09EE126E931E040E0E8
:10177000915040F441111092D601089596E02EE860
:1017800031E0F5CFF90151919F01552389F34F5F66
:10179000EFCF8091A50390916C03981301C0089539
:1017A0008F5F8770FACFB0E0A0E0E9EDFBE00C942A
:1017B000BD2A7C01009154021091550280910102D2
:1017C00090910202082B192BCFE0D0E0CC24C394D7
:1017D000D12CBC2EC6010C2E02C0880F991F0A9472
:1017E000E2F780239123892B49F4219790F7B12CBC
:1017F0008B2DCDB7DEB7E9E00C94D92AB7018C2F39
:101800000E945E0A0E947D0A019779F3F1CFCF937F
:10181000DF93EC010E94D30BBE010E945E0A0E947E
:101820007D0ADF91CF910895983078F5863068F57C
:10183000E82FF0E086E0989FE00DF11D11249E2F27
:10184000977083E0F695E7958A95E1F7EE0FFF1F15
:10185000EE0FFF1FEA54FE4F50E040E080E0219180
:1018600030E0092E02C0369527950A94E2F72170E0
:101870003327042E01C0220F0A94EAF7822B4F5F10
:101880005F4F4430510559F7089580E0089598302E
:1018900098F5863088F5E82FF0E086E0989FE00D17
:1018A000F11D11248E2F877041E001C0440F8A95ED
:1018B000EAF783E0F695E7958A95E1F7EE0FFF1FCB
:1018C000EE0FFF1FEA54FE4F30E020E070E0519130
:1018D000DF011197CB01022E02C0969587950A94DD
:1018E000E2F7817081958527842385278C932F5F6C
:1018F0003F4F2430310559F7089590935502809356
:101900005402089521E030E002C0220F331F8A956F
:10191000E2F72095309580915402909155028223F0
:1019200093230E947D0C08959091D5018095892381
:101930008093D501282F277069F4891759F0909169
:101940004F0392FF07C08695869586950E94820C6C
:101950001092D501089521E030E002C0220F331F1C
:101960008A95E2F78091540290915502822B932B35
:101970000E947D0C089590930202809301020895C5
:10198000FC0124812223C1F0808191810E94070CF7
:1019900092959F70963091F058F4925F9F709230BC
:1019A00058F4803F19F030F4883E30F481E0089517
:1019B0009A5FF4CF843FD1F380E00895883EB0F37E
:1019C000813FD1F7F3CFA6E0B0E0E9EEFCE00C9464
:1019D000C32A49835A8349815A819923A1F022233A
:1019E00091F0CA010E94D30B182F682F89819A8128
:1019F0000E94470C69817A81812F0E945E0A269697
:101A0000E3E00C94DF2ACA010E94140C182FF2CFD5
:101A1000CF93DF93682F81E06A3019F06D3031F495
:101A200080E00E94960DDF91CF9108958091B205DC
:101A30009091B30526E0FC01ACEAB5E001900D926F
:101A40002A95E1F7603E08F458C026E0FC011192A7
:101A50002A95E9F7C091B205D091B30546E050E070
:101A6000BE018CEA95E00E94722B9E012C5A3340F5
:101A7000892B41F1C90145E0969587954A95E1F793
:101A800041E050E0BA0102C0660F771F8A95E2F785
:101A9000CB016091AA037091AB03862B972BB90100
:101AA0006B5F7F4FE5E076956795EA95E1F702C0B9
:101AB000440F551F6A95E2F7842B952B9093AB0347
:101AC0008093AA032A5F3F4F4091A903642F70E0DF
:101AD000C9010E94A02A481B463010F4240F311D72
:101AE000211572E0370710F030E020E024553C4F1C
:101AF0003093B3052093B20596CFF6E06F9FB00107
:101B00001124665B784F46E050E00E94692BA2CF1B
:101B1000CF93DF93EC01FE018491811103C0DF912B
:101B2000CF9108950E94080D2196F5CFCF93382FBD
:101B3000E091B205F091B305EC5AF3402091A9036E
:101B4000622F70E0CF010E94A02A281B822F33232E
:101B500061F066E00E94EB2AC82FC15010F4CF91CB
:101B6000089580E20E94080DF8CF9F01280F311DD3
:101B70002115324018F080E0F0E0E0E08E0F9F2F5A
:101B8000911D84559C4F9093B3058093B205E7CF88
:101B90000E94880D81E00E94960D089580913A017F
:101BA000882359F180914E0387FF27C00E94A20B22
:101BB0008093950140E250E068ED71E084E991E0A6
:101BC0000E94722B892BC1F080E2E4E9F1E0A8EDDC
:101BD000B1E001900D928A95E1F7E0914A03F0910E
:101BE0004B03309749F086E0809394010480F5819F
:101BF000E02D84E991E0099508950E94A20B80935D
:101C00008C0148E050E068EF71E08CE891E00E94C0
:101C1000722B892B89F388E0ECE8F1E0A8EFB1E0C2
:101C200001900D928A95E1F7E0914A03F0914B0300
:101C3000309711F30280F381E02D8CE891E0DBCF47
:101C4000882321F00E949B0B0E94CE0D08958823CB
:101C500039F090910002982B909300020E94CE0DD3
:101C600008950F931F93CF93DF938B01EA01909117
:101C70006203943061F58093E9008FEF9091E80062
:101C8000815095FD06C095ED9A95F1F70000811100
:101C9000F5CF8091E80085FF1AC00E94B906811136
:101CA00011C08091E80085FD06C08091E8008E7724
:101CB0008093E800F2CFF80181918F018093F100C9
:101CC000219779F78091E8008E778093E800DF9183
:101CD000CF911F910F91089543E050E0BC0182E045
:101CE0000E94310E089546E050E0BC0182E00E945F
:101CF000310E089540E250E0BC0182E00E94310EB6
:101D00000895CF93DF93EC0148E050E0BC0181E0FF
:101D10000E94310E88E0FE01A8E5B3E001900D922B
:101D20008A95E1F7DF91CF91089560913601809116
:101D30002B0380FF20C08091350143E0849FC001C8
:101D4000112487579D4F539A2BB1277F3BB13860A1
:101D50005FB7F894FC01649FE00DF11D1124BF01F1
:101D600068177907D1F45FBF8FE594E00197F1F729
:101D700000C000000895809137019091380123E060
:101D8000829FF0011124E757FD4F8917A0F61182B9
:101D9000108212828F5F3396F8CFFC014191CF0100
:101DA000E8E03BB9000000C047FF2BB9440F00003A
:101DB00000C000C000C02BB900C0EA9591F7D0CF99
:101DC000B0E0A0E0E6EEFEE00C94BC2A7C015B01F2
:101DD0006A018091330201E010E08A3010F40AE0D9
:101DE00010E0C1E0D0E0B501C701F601099581110D
:101DF00004C021960C171D072CF4CDB7DEB7EAE01E
:101E00000C94D82ACC9F9001CD9F300D300D112419
:101E100090E080E045E34A95F1F7000001968217D3
:101E20009307C1F7E0CFB0E0A0E0E9E1FFE00C9458
:101E3000BE2A6C017B0164E670E088E70E94FE2701
:101E40008C01E601EC0CFD1C17FD0BC0FE0184911A
:101E500064E670E00E946A288C012196CE15DF05A9
:101E600099F70E94E02881E00115110509F080E052
:101E7000CDB7DEB7E8E00C94DA2A80913703909171
:101E80003803911103C091E089270895882369F0F0
:101E900062E070E08DED95E00E94130F811103C0A8
:101EA0008091370308951092370380913703EBCF69
:101EB000CF93C0913703809138038823D1F00E94DB
:101EC0000808605A75418F4F9F4F6093330370939A
:101ED00034038093350390933603C11108C062E048
:101EE00070E08BED95E00E94130F811105C0C09149
:101EF00037038C2FCF91089581E080933703F7CF7C
:101F0000B0E0A0E0E6E8FFE00C94BA2A49015A01EB
:101F10006B017C010E9424098401A4016A2D7B2DA0
:101F200088E090E00E94BE2B94014A2D5B2DB60103
:101F3000C70100E20E944E2B622F84E290E00E94D3
:101F4000AC2BCDB7DEB7ECE00C94D62AB0E0A0E025
:101F5000ECEAFFE00C94BA2A182FC62FD42F822E59
:101F600000912B0300FF51C080912C03811308C006
:101F700080912D03861304C080912E03841729F0CD
:101F800080918802826080938802E02FE695E69532
:101F9000F0E0E857FE4F808180938602802F8C7F8F
:101FA0008430E9F4ED2FD93708F0E8E7F0E0E552A6
:101FB000FB4FC1112FC02491F22FE22F00FF0FC061
:101FC000809137019091380133E0839FD001112433
:101FD000A757BD4F891708F492C00E94950E109321
:101FE0002C03C0932D03D0932E03882071F02091F1
:101FF0002B0360912F0370913003312FAE0180913C
:102000003103909132030E94800FCDB7DEB7ECE030
:102010000C94D62AEC2EF12CE4919E2ECE2ED12CAF
:1020200026E0129FC00111242FEF30E0B9010E9479
:10203000A02A812F90E0880F991FF5E5F69FA00157
:10204000F79F500D1124841B950BB82EBB0CB80EB6
:10205000A9014E195F094C9DC0014D9D900D5C9DDD
:10206000900D1124F92FCB9DA0011124452F552748
:10207000D901A41BB50BAC9DA001AD9D500DBC9D1D
:10208000500D1124D901AB19B1095D01AE9CD001ED
:10209000AF9CB00DBE9CB00D1124AB2FBB272A1BEB
:1020A0003B0B2C9DD0012D9DB00D3C9DB00D1124FE
:1020B0002B2F62307105A1F050F46115710509F400
:1020C0007DCF6130710581F0292FF52F77CF6430F6
:1020D000710569F080F06630710509F46FCFF4CFB7
:1020E0002E2FE92FFB2F6ACF2E2FE52F67CF292F19
:1020F000FE2FEB2F63CFE92FF92D252F5FCF119600
:10210000EC9311972C931296FC9312978F5F139672
:1021100061CFEBE2F3E0438121E1421B08F440E0B0
:1021200021E0628181810E94A60F0895EBE2F3E035
:10213000438121E1420F08F44FEF21E06281818168
:102140000E94A60F0895EBE2F3E0628121E1621B99
:1021500008F460E021E0438181810E94A60F089588
:10216000EBE2F3E0628121E1620F08F46FEF21E01E
:10217000438181810E94A60F0895EBE2F3E0818103
:1021800021E04381628188500E94A60F0895EBE20E
:10219000F3E0818121E043816281885F0E94A60F84
:1021A000089580912F03882319F0815080932F0385
:1021B00020912B0330912C0340912D0350912E033D
:1021C00060912F037091300380913103909132031D
:1021D0000E94800F089580912F03833018F48F5F41
:1021E00080932F0320912B0330912C0340912D03DA
:1021F00050912E0360912F03709130038091310331
:10220000909132030E94800F089520912B0320FFAC
:1022100024C02370246020932B0380918802816066
:1022200080938802662381F030912C0340912D0326
:1022300050912E0360912F037091300380913103F0
:10224000909132030E94800F20E040912E03609114
:102250002D0380912C030E94A60F089580912B03DB
:1022600086958695815009F481E061E00E94051110
:10227000089561E081E00E9405110895EBE2F3E02A
:1022800085E0808311828FEF828388E783831482C5
:10229000A6E8B2E012968C911297836012968C9306
:1022A000758125E030E04FEF58E760E08681978147
:1022B0000E94800F089590914F0392FB222720F9EE
:1022C000281779F080FB92F990934F0360914E03A9
:1022D00070914F0384E090E00E94CA2B82E00E943C
:1022E000940C0895A4E0B0E0E8E7F1E10C94C32A6F
:1022F00040911702509118026091190270911A02D0
:102300002FB7F8948091510390915203A0915303F9
:10231000B09154032FBF841B950BA60BB70B11E094
:1023200084369105A105B10570F10E9453096E5FD5
:102330007F4F8F4F9F4F69837A838B839C838091DC
:10234000110190911201855E9D4F4091100150E066
:102350004530510510F044E050E0BE016F5F7F4F03
:102360000E947F2B82E090E00E942A2A182F882367
:1023700051F00E940808609317027093180280932E
:10238000190290931A02812F2496E3E00C94DF2A1D
:10239000ABE0B0E0EEECF1E10C94C42A88E0EBE2B3
:1023A000F3E0DE01119601900D928A95E1F780919C
:1023B000860290918702A091880289879A87AB87CD
:1023C0002B8540912F025091300260913102709123
:1023D00032023FB7F8948091510390915203A0913B
:1023E0005303B09154033FBF841B950BA60BB70B4F
:1023F00084369105A105B10510F4222319F18091CD
:10240000190190911A01855E9D4F4091180150E08D
:102410004C30510510F04BE050E0BE016F5F7F4F34
:102420000E947F2B83E090E00E942A2A882369F093
:102430000E94080860932F0270933002809331024B
:10244000909332021092880281E02B96E2E00C9485
:10245000E02AEF92FF921F93CF93DF9300D000D03A
:102460000F92CDB7DEB77B0190E080E00E942A2A70
:10247000182F882309F46DC04091030150E04115E5
:10248000510511F041E050E06091040170910501A7
:10249000655E7D4FCE0105960E947F2B4091130211
:1024A0005091140260911502709116022FB7F894A2
:1024B0008091510390915203A0915303B091540322
:1024C0002FBF841B950BA60BB70B84369105A10576
:1024D000B10538F48CE192E00E9483069D81891752
:1024E000C1F181E090E00E942A2A882309F458C0B3
:1024F00040910B0150E04530510510F044E050E0B0
:1025000060910C0170910D01655E7D4FCE010196C9
:102510000E947F2B8CE192E00E9483069D818913AB
:102520003FC00E94080860931302709314028093C6
:1025300015029093160289819A81AB81BC818093A8
:102540000F0290931002A0931102B093120211E0B7
:102550000EC080911C0290911D02A0911E02B091AC
:102560001F0289839A83AB83BC831111E4CF8091CE
:102570000F0290911002A0911102B0911202F70186
:1025800080839183A283B383812F0F900F900F904C
:102590000F900F90DF91CF911F91FF90EF900895D2
:1025A00010E0E5CFA8E0B0E0E8EDF2E10C94C42A39
:1025B00066EE7EEF90E080E00E94CA2B60E082E051
:1025C00090E00E94AC2B81E090E090930202809317
:1025D000010261E083E090E00E94AC2B60E074E1D6
:1025E00084E090E00E94CA2B60E086E090E00E94C8
:1025F000AC2B6FEF87E090E00E94AC2B40E050E006
:10260000BA0188E090E00E94BE2B60E084E290E096
:102610000E94AC2B60E087E190E00E94AC2B60E070
:102620008CE090E00E94AC2B60E08DE090E00E9496
:10263000AC2B19821A821B821C821D821E821F8271
:10264000188648E050E068E170E0CE0101960E94F3
:102650009C2B40E050E0BA0180E290E00E94BE2B4B
:1026600040E050E0BA018FE090E00E94BE2B40E0D5
:1026700050E0BA0183E190E00E94BE2B2896E2E090
:102680000C94E02A1F920F920FB60F9211242F93F1
:102690003F934F935F936F937F938F939F93AF93EA
:1026A000BF93EF93FF938091E10082FF09C0809177
:1026B000E20082FF05C08091E1008B7F8093E10002
:1026C0008091DA0080FF24C08091D80080FF20C074
:1026D0008091DA008E7F8093DA008091D90080FFAC
:1026E0009DC080E189BD82E189BD09B400FEFDCFB6
:1026F00081E08093620380915503811109C00E949B
:102700009A060E943B078091E20084608093E20079
:102710008091E10080FF17C08091E20080FF13C02C
:102720008091E2008E7F8093E2008091E2008061E0
:102730008093E2008091D80080628093D80019BC19
:1027400085E0809362038091E10084FF2BC080913B
:10275000E20084FF27C080E189BD82E189BD89B59F
:10276000982F917080FFFBCF8091D8008F7D809350
:10277000D8008091E1008F7E8093E1008091E2009B
:102780008F7E8093E2008091E20081608093E2007E
:1027900080916303882309F447C084E08093620337
:1027A000809162038091E10083FF27C08091E20065
:1027B00083FF23C08091E100877F8093E10082E066
:1027C00080936203109263038091E1008E7F809377
:1027D000E1008091E2008E7F8093E2008091E20030
:1027E00080618093E20042E060E080E00E9409079F
:1027F0008091F00088608093F000FF91EF91BF918D
:10280000AF919F918F917F916F915F914F913F9188
:102810002F910F900FBE0F901F90189519BC10921A
:1028200062031092550374CF8091E30087FD93E01B
:1028300090936203B5CF78941F921FB61F92112414
:102840008F939F93AF93BF938091510390915203C5
:10285000A0915303B09154030196A11DB11D809323
:10286000510390935203A0935303B0935403BF9129
:10287000AF919F918F911F901FBE1F9018959C0143
:102880004FB7F8948091510390915203A091530354
:10289000B09154034FBF821B930B08952FB7F89448
:1028A0008091510390915203A0915303B09154032E
:1028B0002FBF08950E944E149C0190914203809175
:1028C0004303982B21F030933F0320933E039091D4
:1028D000440380914503982B21F030933D032093CE
:1028E0003C03E0914A03F0914B03309749F082E0BA
:1028F000809340030680F781E02D80E493E0099502
:1029000008951092000280913A01882339F1809154
:102910004E0387FF23C0E6E9F1E08EE1DF011D925F
:102920008A95E9F790E080E00E94980890E080E0C6
:102930000E9473081092D7010E94CE0D86E0E0E459
:10294000F3E0DF011D928A95E9F7109239031092A6
:102950003A0310923B030E945A140895EEE8F1E006
:1029600086E0DCCFAAE2B0E0E8EBF4E10C94C32A05
:1029700084E693E02091F100FC012193CF01F3E084
:102980008C369F07B9F780916503833009F470C0D6
:10299000B8F4813009F447C0823009F4B1C08091A5
:1029A000E80083FF7EC280916403909165039A30B2
:1029B00008F077C2E92FF0E0EE51F44D0C942D2B86
:1029C0008A3009F48CC08B3009F46FC0893039F734
:1029D00080916403813219F78091680390916903B3
:1029E0000297E8F68091E800877F8093E800809165
:1029F000E80082FF38C09091F3008091F2000297C6
:102A000031F48091F100813011F0863021F4809111
:102A1000F100809357038091E8008B778093E80062
:102A20000E94EA06BCCF80916403813A09F0B7CFD7
:102A30008091E800877F8093E800809168039091FF
:102A40006903892B61F468E088E593E070E00E94F7
:102A500096078091E8008B778093E800A0CF60E034
:102A600090E080E0F3CF809162038111C0CF97CFD7
:102A700080916403813A09F092CF8091680390912C
:102A80006903892B09F08BCF8091E800877F8093C1
:102A9000E8008091E80080FFFCCF80913A018093AC
:102AA000F1008091E8008E77B9CF80916403813284
:102AB00009F075CF8091680390916903892B09F023
:102AC0006ECF8091E800877F8093E8000E94EA063D
:102AD0008091660380933A010E94811460CF8091B7
:102AE0006403813209F05BCF8091E800877F809397
:102AF000E8000E94EA0680916703809356034FCF57
:102B000080916403813A09F04ACF8091E800877F81
:102B10008093E8008091E80080FFFCCF809156030D
:102B2000BECF803899F0823809F0BBC1809168032C
:102B30008F70873008F0B5C18093E9008091EB0079
:102B400085FB882780F91092E90006C08091600318
:102B500090916103911182609091E800977F90932A
:102B6000E8008093F1001092F1008091E8008E77E8
:102B700094C1882309F482C1823009F092C1809106
:102B80006603811185C1809168038F702FEF280F34
:102B9000263008F086C18093E9002091EB0020FFE9
:102BA00077C1933031F48091EB0080628093EB0029
:102BB0006FC19091EB0090619093EB0021E030E0C9
:102BC00001C0220F8A95EAF72093EA001092EA00EA
:102BD0008091EB008860EACF811163C11091660398
:102BE0001F778091E3008078812B8093E3008091B0
:102BF000E800877F8093E8000E94EA068091E80061
:102C000080FFFCCF8091E30080688093E30082E046
:102C1000111183E08093620344C18058823008F030
:102C200040C180916603909167038C3D23E0920739
:102C3000A1F583E08A838AE289834FB7F894DE01A5
:102C4000139620E03EE051E2E32FF0E0509357006E
:102C5000E49120FF03C0E295EF703F5FEF708E2F8D
:102C600090E0EA30C0F0C7968D939D932F5F24319A
:102C700059F74FBF8091E800877F8093E8006AE2B0
:102C800070E0CE0101960E9496078091E8008B7754
:102C90008093E80006C1C096E7CF40916803509149
:102CA0006903292F33272330310509F444C078F50F
:102CB0002130310509F46FC08BE390E0E9EDF6E0D7
:102CC0002230310509F0EDC02091E800277F2093E4
:102CD000E80020916A0330916B038217930708F490
:102CE0009C0140E02115310509F064C0411162C02A
:102CF0008091E80082FDC9CF80916203882329F288
:102D0000853019F28091E80083FFF2CFBECF2132E7
:102D10003105A9F12232310509F0C3C04115510531
:102D200009F443C04130510509F0BBC086EB90E087
:102D3000EFEDF5E0C9CF992781309105C1F00097FB
:102D400059F0029709F0ADC0E6E2F7E0E4918E2F6A
:102D500090E0E6E2F7E007C0E6E4F7E0E4918E2FCA
:102D600090E0E6E4F7E0009709F49BC0ADCFE4E320
:102D7000F7E0E4918E2F90E0E4E3F7E0F4CF411523
:102D8000510571F04130510509F08BC089E090E0A8
:102D9000E4E0F7E099CF82E190E0E4E1F7E094CF5E
:102DA00089E090E0EBEEF6E08FCF84E490E0E5E997
:102DB000F6E08ACF80916203882309F466CF8530DC
:102DC00009F463CF8091E80083FD5FCF8091E80034
:102DD00082FD8ECF8091E80080FF84CF9091F30038
:102DE0008091F2002115310519F08830910550F0DD
:102DF00041E0089709F040E08091E8008E778093E9
:102E0000E80070CF44914093F10031962150310990
:102E10000196E8CF803809F044C08091E800877FB0
:102E20008093E800809163038093F1009ECE81112E
:102E300038C0109166031230A0F58091E800877FBA
:102E40008093E800109363030E94EA06112311F0B7
:102E500084E005C08091E30087FDFACF81E0809394
:102E6000620342E061EC81E00E94090742E261EC0A
:102E700082E00E9409078091620313C0809166037B
:102E8000813079F481E0933009F080E08093610330
:102E90001092E9008091E800877F8093E8000E940B
:102EA000EA068091E80083FF0AC08091E800877FEE
:102EB0008093E8008091EB0080628093EB00AA96FB
:102EC000E3E00C94DF2A1F920F920FB60F921124A9
:102ED0002F933F934F935F936F937F938F939F9322
:102EE000AF93BF93CF93DF93EF93FF93D091E9001C
:102EF000DF708091EC00C82FC17080FDC0E8109297
:102F0000E9008091F000877F8093F00078940E9420
:102F1000B2141092E9008091F00088608093F00074
:102F2000CD2BCF70C093E900FF91EF91DF91CF914E
:102F3000BF91AF919F918F917F916F915F914F91D1
:102F40003F912F910F900FBE0F901F9018950E94E8
:102F500081142FEF84E39CE0215080409040E1F702
:102F600000C0000088E19AE00FB6F894A89580931D
:102F700060000FBE90936000FFCF4091420390919C
:102F8000440320914503662309F469C0942B922BD6
:102F900020914303922B31F098E09093390391E014
:102FA00090933A038D3C41F40E94F0088195809300
:102FB00043030E945A1408958E3C19F40E94F008AD
:102FC000F6CF8F3C31F40E94F00881958093420344
:102FD000F0CF803D19F40E94F008F8CF893D29F424
:102FE0000E94CE0880934403E4CF8A3D21F40E94DE
:102FF000CE088195F7CF8B3D31F40E94CE088195A4
:1030000080934503D6CF8C3D19F40E94CE08F8CFAB
:103010009FE2980F983070F4815D990B21E030E0C9
:1030200001C0220F8A95EAF780914103822B809399
:103030004103BFCF8D3D31F480913B03816080938C
:103040003B03B7CF8E3D21F480913B038260F7CFE5
:103050008F3D09F0AECF80913B038460F0CF8D3C73
:1030600059F48091430387FF0DC01092430341112F
:103070000BC01092390308C08E3C81F48091430349
:1030800018169CF3442381F08091440390914503EA
:10309000892B09F08ECF10923A038BCF8F3C49F4E5
:1030A00047FFF0CF10924203809143038111ECCF90
:1030B000E0CF803D19F41416ACF3E4CF893D29F438
:1030C000191604F710924403DDCF8A3D19F497FFD7
:1030D000D9CFF8CF8B3D29F427FFD4CF10924503E9
:1030E000D1CF8C3D19F41216CCF3CCCF9FE2980FC0
:1030F000983090F4815D990B21E030E0B90102C075
:10310000660F771F8A95E2F7CB0180959091410376
:10311000892380934103B6CF8D3D31F480913B03E9
:103120008E7F80933B03AECF8E3D21F480913B0395
:103130008D7FF7CF8F3D09F0A5CF80913B038B7F2B
:10314000F0CF882381F19CEF980F913A28F40E94E8
:1031500014080E94CE0D089590E2980F983050F414
:10316000877091E001C0990F8A95EAF7892F0E9434
:103170009B0BEFCF9BE5980F933028F490E080E015
:103180000E949808089598E5980F9B3128F490E0E4
:1031900080E00E947308089593E3980F933118F428
:1031A00060E00E94BD170895CF93C82F8823B1F126
:1031B0008CEF8C0F813AA0F580913A01882301F1C0
:1031C00080914E0387FF1CC0EC2FE695E695E695AF
:1031D000F0E0EC56FE4F828190E04C2F477021E0EA
:1031E00030E002C0220F331F4A95E2F78223932377
:1031F000892B79F08C2F0E9414080E94CE0D09C0F3
:10320000EEE8F1E08191C817A9F381E0E439F8070D
:10321000C9F78C2F0E943F080E94CE0DCF910895D0
:1032200080E28C0F883068F4C77021E030E001C084
:10323000220FCA95EAF780910002822B8093000248
:10324000EBCFEBE5EC0FE33040F4F0E0E55CFE4F54
:10325000808190E00E949808E1CFE8E5EC0FEB3127
:1032600050F4F0E0EE0FFF1FE25CFE4F8081918191
:103270000E947308D3CF83E38C0F833178F661E02B
:103280008C2F0E94BD17CACF0F931F93CF93DF934C
:10329000C62FD42F022FFC0185818823A9F06093CB
:1032A000A8030E944E149093A7038093A603C770AF
:1032B00081E001C0880FCA95EAF70E94270EDF91CE
:1032C000CF911F910F9108958091A803681335C085
:1032D0008091A6039091A7030E943F14883C91051A
:1032E00060F510E21D0FCD17B9F080E28C0F883029
:1032F00040F4C77081E001C0880FCA95EAF70E94C8
:10330000200E183048F481E09D2F977001C0880F7F
:103310009A95EAF70E94270E802F0E94D418802FDA
:103320000E94A118183058F6D77081E001C0880FAC
:10333000DA95EAF70E94200EC2CFC77081E001C083
:10334000880FCA95EAF7F6CFB0E0A0E0EAEAF9E123
:103350000C94BC2A8C01FC018481882309F467C089
:1033600021E0408151816281738195810E94E30C4B
:10337000EC01F8019581992309F464C4818180935B
:103380006002808180935F0280E280932D01D09360
:103390005E02C0935D029E0130522115304238F426
:1033A000F8018681807F09F45EC0FE010AC09E019B
:1033B000305421153041C8F4F8018681807FFE0128
:1033C00009F0FF27ED33F10528F4E455FF4FE491B0
:1033D000E0932D01FE01E851FC47E730F10508F0CC
:1033E00042C0E451F44D0C942D2B9E013A952115C9
:1033F0003F41D8F29E01205A32452032310550F328
:10340000FE01E0CF26E241EE61EEC8010E944419C0
:103410008091D501877059F0F8018581882339F0B2
:1034200080914F0382FF03C082E00E94940CCDB7CD
:10343000DEB7EAE00C94D82A27E245EE65EEE5CF48
:1034400026E241EE60EEE1CF27E245EE64EEDDCF0D
:1034500026E241EE62EED9CF27E245EE66EED5CF09
:1034600028E241E0EBCF1092A8039E0130572332AF
:10347000310508F001C484E090E00E94962B9093FF
:103480004F0380934E03FE01E150F047E232F10515
:1034900020F4ED50F44D0C942D2B80914E0381605F
:1034A00080934E0395C080914F03886080934F03B3
:1034B0008FC080914E038260F3CF80914E03846071
:1034C000EFCF80914E038860EBCF80914F038160F6
:1034D000EDCF80914F038260E9CF80914E038061F0
:1034E000DFCF80914E038062DBCF80914E038064FA
:1034F000D7CF0E94811480914E038068D1CF8091F4
:103500004E038C60CDCF80914F038360CFCF8091ED
:103510004E038E7FC5CF80914F03877FC7CF8091A9
:103520004E038D7FBDCF80914E038B7FB9CF8091AD
:103530004E03877FB5CF80914F038E7FB7CF8091A9
:103540004F038D7FB3CF80914E038F7EA9CF8091A3
:103550004E038F7DA5CF80914E038F7BA1CF0E941C
:10356000811480914E038F779BCF80914E03837F90
:1035700097CF80914F038C7F99CF80914E0382FB30
:10358000992790F921E0922790FB82F990FB83F92B
:1035900087CF80914F03982F909591708E7F892BC4
:1035A00090FB81F983CF90914E03892F8F7B96FFFB
:1035B000806476CF0E94811490914E03892F97FBEF
:1035C00087F980586DCF61E08EE090E00E94AC2BCF
:1035D00060914E0370914F0384E090E00E94CA2BEB
:1035E0000E94811415CF60E0EFCF90914E03892F98
:1035F0008F7E94FF806154CF90914E03892F8E7FF0
:1036000090FF81604DCF90914F03892F877F93FF6B
:1036100088604CCF85E340C38091B401811104C020
:1036200089E20E9414083AC385E3FBCF992309F489
:1036300015C3C3303CE7D30709F4D8C008F0BBC0BA
:10364000C1159CE7D90709F4C4C0C130DC4709F4AF
:10365000D3C0F8018581C081D181882309F4DAC003
:10366000CE010E94D30BF82E682FCE010E94470C8A
:10367000BE018F2D0E945E0A0E947D0AD82FC92F9D
:10368000A82EF801C580B680B2943FE0B3228091A5
:10369000D501877009F1EC2CCC20F9F0892F807FBF
:1036A000803469F080E28D0F8830B0F0892F807E01
:1036B000803229F4F1E0FD1778F4BB2069F08091A5
:1036C0004F0382FF09C082E00E94940C8091D501D3
:1036D0008770EE24E3948111E12CDC2ED2942FE04C
:1036E000D2222BE02D1508F4FAC0ED2DF0E0EB5EB0
:1036F000F34D0C942D2B80912B0380FF1CC0282FA1
:103700002E7F20932B0330912C0340912D03509159
:103710002E0360912F0370913003809131039091BB
:1037200032030E94800F809188028160809388021A
:103730000E94950E6DCE816080932B0361E086958B
:1037400086950E94051164CE4EE251E169E371E174
:103750000E941E095DCE49E351E16EE271E1F8CFAE
:103760004DEB50E167EC70E1F3CF47EC50E16DEBCE
:1037700070E1EECF43EA50E160EB70E1E9CF40EB5E
:1037800050E163EA70E1E4CF49E850E166E970E1B5
:10379000DFCF46E950E169E870E1DACF41ED50E171
:1037A0006BEE70E1D5CF4BEE50E161ED70E1D0CF23
:1037B00061E081E0C6CFCB35FCE7DF0749F1CC35CE
:1037C0002CE7D207D9F0CA35DC4709F042CF81E0B7
:1037D0001CC00E9481148FEF94E3ECE08150904074
:1037E000E040E1F700C000000E94F7076FEF7FEFB5
:1037F00090E080E00E94CA2B0E94A71780914F039F
:1038000082FB882780F991E089270E945B1121CFF4
:1038100080E0FBCFCE010E94140CF82E29CF3C2F64
:103820003F70F32EC07F19F0F29490EFF922CC2074
:10383000B9F0FF2069F080E28D0F883010F0A11000
:1038400009C080910002F82AF09200020E94CE0D79
:103850008D2F43C08091D701F82AF092D701F6CF7F
:103860008D2F0E94A118FF20D1F1D05ED83010F02A
:10387000A11004C08F2D0E949B0B06C0F094809174
:10388000D701F822F092D7010E94CE0D28C08C2FCC
:103890008F70F82EC07FC03219F0F29480EFF822BA
:1038A000AA2059F091E0A91609F479C0CC2009F4B6
:1038B00085C0BB2009F447C0CBCF80914F0382FD68
:1038C0003EC0CC20B1F1FF2039F080910002F82AEF
:1038D000F09200020E94CE0D80E00E94D4182D2D9F
:1038E0002850330B2430310510F40E94BD08EE201F
:1038F000A9F08091D50180FD11C0F801158286954F
:10390000869586950E94AB0CC8010E94A4198091EF
:10391000D5018695869586950E94820C20E0F80157
:103920004081518162817381848195810E94E30C81
:103930007ECD80E00E94A118FF2089F29BCFCC2091
:10394000A1F0B11004C08F2D0E94270EC8CFE1E076
:10395000BE12C5CF8091D6019F2D9823F91609F488
:10396000BECFF82AF092D601BACFB110B8CF8F2DC2
:103970000E94200E9091D6018F2D892329F08F2D42
:10398000809589238093D6018091B5019F2D98233E
:1039900009F4A5CFF094F822F092B501A0CFCC2085
:1039A00029F0F5E0FB1508F49ACFCDCF24E02B15D4
:1039B00008F495CF8F2D0E94200E91CFBB20D1F31C
:1039C00039E3A31209C08FEF97EEE3E081509040F6
:1039D000E040E1F700C000008D2F0E94A1187FCFCA
:1039E0008C2F86958695837069F0813009F077CFAA
:1039F0008D2F9C2F9370C11002C080E090E00E9438
:103A000073086DCF8D2F9C2F9370C11002C080E082
:103A100090E00E94980863CF6C2D8D2F0E94BD17F7
:103A20005ECF8C2F837009F03FC0C11058CF4D2F4F
:103A3000429546954770440F440F2D2F2F7030E06C
:103A4000042E02C0220F331F0A94E2F790E080E0B8
:103A5000D4FF09C08FE090E002C0880F991F4A95FB
:103A6000E2F780959095C695C695C370C23099F0DF
:103A700078F44091010250910202C13039F0822B5A
:103A8000932B842395230E94BB0C29CF242B352B09
:103A9000822B932BF8CF822B932B20910102309114
:103AA000020282279327EFCF8695CC2011F08C2F2E
:103AB0008170882309F413CF4D2F429546954770A6
:103AC000440F440F2D2F2F7030E0042E02C0220F20
:103AD000331F0A94E2F790E080E0D4FF09C08FE042
:103AE00090E002C0880F991F4A95E2F78095909563
:103AF000C695C695C370C23099F078F440915402CF
:103B000050915502C13039F0822B932B8423952399
:103B10000E947D0CE4CE242B352B822B932BF8CFE7
:103B2000822B932B209154023091550282279327A8
:103B3000EFCFCF70CC2029F08C2F0E94AB0C8D2FB3
:103B400003CF8D2F0E94200E8C2F0E94820CC7CE97
:103B50008D2FF2EFAF1699F1FA1570F020EFA21643
:103B6000D1F031EFA31691F0CC2009F45BC0B11075
:103B70006FCE8C2F8F7127C093EFA91639F1E4EF28
:103B8000AE12F2CF80914F0382FD2EC08C2F8F7129
:103B9000CC20D9F218C0CC2069F0F4E0FB1508F471
:103BA0009ECECF7181E090E002C0880F991FCA9528
:103BB000E2F7B8CF25E02B1508F491CEF2CF8C2F89
:103BC0008F71C110C2CF0E94AB0C89CE90E080E013
:103BD000CC2009F49DCFCF7181E090E002C0880F26
:103BE000991FCA95E2F794CFCC2089F0CF718C2F22
:103BF0000E94AB0C80914F0382FF07C038E0C39F47
:103C0000C001112483608093D5018C2FDCCF81E02B
:103C10000E94940C81E08B1508F061CE82E00E9436
:103C2000940C5DCEBB2059F0893309F0D5CE9FEFBF
:103C3000E7EEF3E09150E040F040E1F7CBCE8C2F7F
:103C40008F7183CFFE01E851FC47E730F10508F49E
:103C5000C8CBC6312CE7D20709F4DECC8091000234
:103C60008272FE01E052F847E531F10508F0F1CC2F
:103C7000EF5DF34D0C942D2BC631FCE7DF0709F007
:103C8000D5CC809100028A7A91E009F490E090937B
:103C9000B4018111BFCC89E20E943F080E94CE0D81
:103CA000B7CBCF93DF938091D401807F09F04DC0D3
:103CB0008091D301882309F448C0E091A503509175
:103CC0006C03C091CF01D091CE016091D001709171
:103CD000D10147E05E17C9F18E2F90E0E49FF0011B
:103CE0001124E359FC4F2481222391F1489FF001D4
:103CF000499FF00D1124DF01A359BC4F11962C915F
:103D000011972C1325C02C912D1322C015962C91A0
:103D1000159721111DC012962D913C91261B370B32
:103D2000283C3105A8F48091D4018F708061809384
:103D3000D401ED58FC4F80818F70806180838EECC0
:103D400091E00E94A4190E94C90BDF91CF910895C0
:103D5000FC013196E770BECFA4E1B0E0E2EBFEE1FA
:103D60000C94BA2A8C0186E0F801DE011F960190BE
:103D70000D928A95E1F7F8018481E5809EECA92EE9
:103D800091E0B92E9091D201911128C0882319F1A8
:103D9000EE20F1F0C8010E94C00CF82E8823C1F07B
:103DA00087E0F801D50101900D928A95E1F78091A5
:103DB000D201813031F48091CE019091CF010E94E7
:103DC000070C0E94511E8F2D6496ECE00C94D62AAD
:103DD000C8010E94A419FF24F394F5CFD080C180BC
:103DE00082809380F090D3012091D0013091D10155
:103DF000A401421B530BFF2009F4D9C0483C5105D4
:103E000008F092C08823F9F29091CF018091D401FB
:103E1000282F207F09F056C0C91214C09091CE01FE
:103E2000D91210C0E11048C08F7080618093D40116
:103E30008EEC91E00E94A4198091D401F801868350
:103E4000F12CC1CFE11038C06C2D8D2D0E9464067D
:103E50006C2D8D2D0E946406E82E8111F1CFDF8636
:103E6000C88A8F8598890E94070C292F22952F7068
:103E7000243058F49F70223088F0992399F0F8018B
:103E80009681907F79F4FE2C9ECF2A5F2F7022308E
:103E900068F0C8010E94A419EF2CF5CF992311F006
:103EA000882389F3805E883070F3F3CF803F58F326
:103EB000815F833070F7E7CF8091D4018160809378
:103EC000D401BECFC91207C09091CE01D91203C050
:103ED000EE2009F48DC0C8010E94C00C882309F4AB
:103EE00077CFEE2009F474CF8091D401803288F02E
:103EF0002091CE013091CF01398728879B868A8611
:103F00009091D2019C871D868E87CE0108960E94D3
:103F1000A41987E0F801AEECB1E001900D928A950A
:103F2000E1F70E94511E57CF9091D401292F207F95
:103F300051F48EEC91E00E94A41987E0F5011192F2
:103F40008A95E9F77DCF882309F43DCF8091CF0191
:103F50008C1110C08091CE01D8120CC0E1100AC0A3
:103F60009683C8010E94A41987E0F50111928A95F1
:103F7000E9F729CFC8010E94C00C882309F428CF93
:103F8000EE2009F425CF8091D401803210F22091E7
:103F9000CE013091CF013A8329839C828B8290910C
:103FA000D2019D831E828F83CE010196B0CF483C03
:103FB0005105D0F6882309F40ECFFE2CEE2009F42B
:103FC00007CF8091CF018C1120C08091CE01D812F3
:103FD0001CC08091D40180FD0FC0982F907F61F0AC
:103FE0008683903F31F0982F907F905F8F70892B60
:103FF0008683C8010E94A41987E0F801AEECB1E005
:1040000001900D928A95E1F7DECEC8010E94C00CA6
:1040100081117FCF8091D40181608093D401C80148
:104020000E94A419D0CEABE1B0E0E9E1F0E20C943B
:10403000C22A4E8B5F8B688F798F8A8F9B8F192F47
:1040400091111092D7011D8A86E0FE017696DE015D
:104050001F9601900D928A95E1F70A8D002341F099
:1040600021E04F85588969897A89C8010E94E30C4B
:104070000B8B1C8B87E0FE013F96DE0118960190AA
:104080000D928A95E1F7CE0108960E94AC1E81112F
:104090002AC087E0FE013896DE01119601900D924C
:1040A0008A95E1F78C858823F1F020916C0330E04C
:1040B000C9010196877099274091A50348171906F1
:1040C000E9F097E0929FD001939FB00D1124A3597E
:1040D000BC4FFE01319601900D929A95E1F78093C5
:1040E0006C030E94C90B17E08091A50390916C03AB
:1040F000891312C06B96E4E00C94DE2A0E948114AE
:1041000010926C031092A50387E0EEECF1E0DF0162
:104110001D928A95E9F7E7CF819FC0011124835949
:104120009C4F0E94AC1E882329F38091A50390E048
:104130000196877099278093A503D6CFA3E1B0E0BD
:10414000E4EAF0E20C94B92A8E01045F1F4F88E084
:10415000D8011D928A95E9F786E7C82E81E0D82E0E
:10416000F12CE12CAA24A394B12C20E8822E21E08A
:10417000922EF60181916F018F3F09F442C0F894AD
:10418000E82FE295EF70F0E021A18F70A50102C049
:10419000440F551F8A95E2F7CA01922F982B91A3DD
:1041A00092A18095892382A3789400C0EAE7F1E088
:1041B000712C31E021912F3F09F498C0A22FA295D4
:1041C000AF70B0E090968C9190E02F7002C0959502
:1041D00087952A95E2F780FD89C0832F782A330FCF
:1041E0008E169F0639F7F601319780818F3F11F0C7
:1041F0000E943C0950EA5A95F1F7F801EE0DFF1DB7
:1042000070828FEFE81AF80AA4E0EA16F10409F0C8
:10421000B0CF48E050E0B80188E392E00E94722BF2
:10422000009741F028E0F801A8E3B2E001900D9278
:104230002A95E1F70091410210E00D5B1D4F892B9B
:1042400009F456C081E0809307020E944E149093B7
:10425000060280930502F12CE0904603EE2009F45B
:10426000A1C019821A821B821C82809133028A307B
:1042700008F062C049E252E1BE016F5F7F4FC801A2
:104280000E94E00E882309F47CC042E751E1BE01A0
:104290006F5F7F4FC8010E94E00E882309F471C050
:1042A00048EC51E1BE016F5F7F4FC8010E94E00EF4
:1042B000882309F466C0109233028091400290E096
:1042C00044E050E0BE016F5F7F4F8D5B9D4F0E94C9
:1042D000722B21E020930E02892B09F044C0E12CBF
:1042E0008E2D8F296396EDE00C94D52A80E076CF51
:1042F000F0900702FF2009F4AECF80910502909163
:1043000006020E943F14059708F4A5CF44E050E050
:1043100068E372E0C8010E94722B892B59F084E097
:10432000E8E3F2E0D80101900D928A95E1F710924E
:10433000070292CFF12CFBCF8091080290910902E5
:104340000E943F14843F914008F094CF80910E0268
:10435000882329F284E0FE013196DF011D928A95BF
:10436000E9F710920E02E0914002F0E0ED5BFD4FA4
:1043700089819A81AB81BC8180839183A283B3833D
:10438000AFCF809133028F3F31F08F5F8093330244
:104390008A3008F492CF0E944E14909309028093C1
:1043A0000802D4CF84E0F801ACE1B2E001900D92B4
:1043B0008A95E1F78CE192E00E94830680931B02CC
:1043C0008090200290902102A0902202B0902302BF
:1043D00080910A0290910B02A0910C02B0910D0203
:1043E00088169906AA06BB06B1F080920A0290923E
:1043F0000B02A0920C02B0920D020E940808861ACD
:10440000970AA80AB90A8092340290923502A092C3
:104410003602B09237028BE0E4E2F2E0DE01119660
:1044200001900D928A95E1F72981822F86958695D4
:104430000A81DB80CC801B8510922E02112309F4A7
:104440004FCF10FF0AC090912B0320FF0FC0916047
:1044500090932B0360E00E94051111FF41CF20E0F3
:104460004C2D6D2D802F0E94A60F3ACF9E7F9093EA
:104470002B03809188028160809388020E94950EB0
:10448000ECCFA6E0B0E0E7E4F2E20C94C22A0E948E
:104490004E148C01809103029091040280179107C1
:1044A00081F019821A820E944E14682F49815A8124
:1044B000792F80E090E00E94132010930402009373
:1044C00003022696E4E00C94DE2A1F921FB61F9288
:1044D00011248F939F93AF93BF93809150038111C9
:1044E00013C08091510390915203A0915303B09156
:1044F00054034196A11DB11D809351039093520323
:10450000A0935303B0935403BF91AF919F918F91A8
:104510001F901FBE1F901895CDB7DEB761970FB6DD
:10452000F894DEBF0FBECDBF85B7806885BF85B765
:10453000806885BF84B7877F84BF0FB6F894A8953D
:1045400080916000886180936000109260000FBECF
:1045500080E890E00FB6F89480936100909361003A
:104560000FBE8AE399E090938B0180938A010E94A9
:104570009A060E943B078091E20084608093E200EB
:104580007894809162038823A1F01091E9001F7054
:104590009091EC00892F817090FD80E8182B10928B
:1045A000E9008091E80083FD0E94B2141F7010930F
:1045B000E90082E084BD93E095BD9AEF97BD8093BA
:1045C0006E00109234021092350210923602109250
:1045D00037028091D80080618093D8002AE12A9523
:1045E000F1F700C08091D900182F117080FD04C030
:1045F0000E949A0610926203109346031093470399
:1046000010932001112309F472C0109235018BE13F
:10461000809336010E943E298091200180912001E3
:1046200094E0811190E09093410284E0891B809393
:10463000400284E90E943C0986E60E943C0987E921
:104640000E943C0986EC0E943C090AE711E0D8016F
:104650008D918D018F3F11F00E943C09B1E000382F
:104660001B07A9F788E0E3E4F2E0DF01282F1D92A1
:104670002A95E9F7E8E3F2E0DF011D928A95E9F770
:1046800090E080E00E94962B863E9E4F11F00E94A3
:10469000D21282E090E00E94882B80934B0284E04B
:1046A00090E00E94962B90934F0380934E030E94BC
:1046B0009E20EFEFF6E721E0E150F0402040E1F7E7
:1046C00000C000000E949E2080914703E4E0811119
:1046D000E0E0F0E0ED5BFD4F808181FF0EC06FEF09
:1046E0007FEF90E080E00E94CA2B0E94F7078BE1E9
:1046F00080933501809336018FCF83E090E00E9454
:10470000882B90E00E94BB0C80914603811131C13F
:1047100082E08093810280E88093A9030E94F827B9
:104720006BE070E08FE594E00E94130F8823E9F1BD
:104730008091810265E070E081FD1DC18AE594E011
:104740000E94130F882389F16DE070E088E494E003
:104750000E94130F882349F10E940808605A75418E
:104760008F4F9F4F609333037093340380933503CF
:1047700090933603ECEAF3E080E092E0DF019C01E5
:104780001D9221503040E1F7F093B305E093B2055C
:104790008FEF9FEF9093AB038093AA0381E0809308
:1047A0003803809337031092820280914202811174
:1047B0007AC090E080E00E94962B863E9E4F21F0CA
:1047C0000E94D2120E943E1188E090E00E94902B3D
:1047D0004B015C0184E290E00E94882B282F30E09E
:1047E00040E050E060E070E080E090E000E20E9495
:1047F000332B282939294A295B2920932B0330930D
:104800002C0340932D0350932E0360932F0370933A
:104810003003809331039093320380918802836048
:10482000809388022C7F89F50E943E1188E090E0F9
:104830000E94902B6B017C0184E290E00E94882B07
:10484000282F30E040E050E060E070E080E090E051
:104850000E94332BB22FA32FF42FE52F5B0197017A
:104860008601BC29A12BFE29E32BB0932B03A09337
:104870002C03F0932D03E0932E0360932F03B0924B
:10488000300380933103909332030E942409809176
:104890002B0380FF05C060E0869586950E94051178
:1048A00081E08093420280914603811102C00E9400
:1048B000412981E291E090934B0380934A031AE0EF
:1048C000C12ED12CE12CF12C8091620300E112E188
:1048D000853009F48DC00E949E200CE412E0B3E400
:1048E000AB2EB2E0BB2ED501F80191918D9132E053
:1048F000E435F30709F486C09817B9F340904603EE
:10490000912C33243394D5018D905D01F8015190A1
:104910008F01581429F1712C662463945824852D35
:104920008621B1F04420A1F07F8298860E944E1427
:104930009A8789873B8691E0882D862109F490E04B
:104940009C874F81588569857A858B850E941320C5
:104950007394660CF6E07F12E2CFF8013197808203
:10496000939428E09212CFCF0E94530931E03D8703
:104970004EC080E0CECE85E594E0E2CE8091620329
:10498000843031F10E943D0F1092500388E190E095
:10499000A0E40FB6F894A895809360000FBEA09392
:1049A000600083B7817F846083BF83B7816083BFEA
:1049B0007894889583B78E7F83BF0FB6F894A895B7
:1049C00080916000886180936000109260000FBE4B
:1049D00080916103882361F00E949E20E3E4F2E06D
:1049E00081918111E0C22BE432E02E173F07C1F71D
:1049F00080916203853009F4C1CF0E9481140E9426
:104A0000BD0869CF98137ACF0E9441221D868091FC
:104A10003803882309F4B3C01091460380918302C0
:104A2000909184020E943F14C29708F488C00E94AB
:104A30004E1490938402809383028CEA93E09093C7
:104A4000B3058093B205112309F4C2C18BE894E049
:104A50000E94880D2091540230915502832F99278E
:104A6000009751F19C0188E0A901F4E05695479523
:104A7000FA95E1F74115510511F08C5F9A01A901F2
:104A800056954795569547954115510511F08E5FFE
:104A90009A0136952795232B09F08F5F813009F411
:104AA00051C1882359F0823009F44FC1833009F491
:104AB0004FC18AE694E004C080E0D6CF83E894E05A
:104AC0000E94C80D80916002805D0E94080D89E9F6
:104AD00094E00E94880D80915F02805D0E94080D25
:104AE00085E994E00E94880D40905D0250905E023E
:104AF00080912B0190912C014816590609F02BC189
:104B000080915C02803209F026C1E6E5F2E08F0177
:104B100081918032E1F3F80101900020E9F79F01D3
:104B20002150310959010A151B0508F44BC183E9CD
:104B300094E00E94880D80912D010E94080D8091C3
:104B4000AA039091AB03892B09F047C180913703E9
:104B50008823A9F00E9408080091330310913403C0
:104B60002091350330913603601B710B820B930B40
:104B70006F3F7F4F8F4F9F4710F40E943D0F8D85F1
:104B800081110E94580F86E0E0E4F3E0DE01119607
:104B900001900D928A95E1F79090410300914203B4
:104BA000B0904303A0904403109145031092420338
:104BB000109243031092440310924503802F8B29D7
:104BC00009F445C080913E0390913F030E943F1439
:104BD0009C0190913903992309F405C225313105CF
:104BE000B0F19F3F19F09F5F90933903002359F074
:104BF0000E94F0089FEF10160CF491E0899F802D21
:104C0000112480934203BB2059F00E94F00891E0E8
:104C10001B140CF09FEF899F802D11248093430378
:104C200080914203882399F080904303882079F093
:104C30000E941009882309F4AEC180934203882D95
:104C40000E941009882309F4A8C180934303812F8F
:104C50008A2909F445C080913C0390913D030E944C
:104C60003F149C0190913A03992309F4B7C121356F
:104C70003105B0F19F3F19F09F5F90933A03AA204E
:104C800059F00E94CE089FEF1A140CF491E0899F0E
:104C9000802D112480934403112359F00E94CE08E3
:104CA00091E011160CF09FEF899F802D11248093C5
:104CB000450380914403882399F0A0904503AA20DE
:104CC00079F00E941009882309F469C18093440394
:104CD0008A2D0E941009882309F463C1809345033B
:104CE00080914103981217C080914203882311F0EC
:104CF000081311C020914303222311F0B2120BC0FC
:104D000090914503992311F0191305C03091440384
:104D1000332309F45EC10E945A1486E0FE013196E5
:104D2000A0E4B3E001900D928A95E1F70E94BD08DE
:104D300090918502891709F4C7CD809385020E945E
:104D40000808C2CD8DE794E0BBCE87E794E0B8CEEB
:104D500080E794E0B5CE50922C0140922B0180E286
:104D600080935C02712C612C10925B0256E5852EBB
:104D700052E0952E61E5A62E62E0B62E8401C301B5
:104D8000B201A70196010E940B2B605D603319F4FC
:104D90008016910631F0411451046104710409F444
:104DA00060E2D80114966C93C301B201A701960189
:104DB0000E940B2B29013A0101501109A016B106DE
:104DC000F1F6A3CED8018D918D010E94080DABCED6
:104DD0008BE994E00E94880DB2CE8091380388233D
:104DE00009F4B4CE809182028111B0CE0E94580F96
:104DF0002091AA033091AB032115310509F4A6CE09
:104E000080E041E050E0482E512C1A01082E02C0EB
:104E1000220C331C0A94E2F7B10162237323672B3F
:104E200011F48F5FF0CF9091810290FF9AC0880FAC
:104E3000880F880F8093300110923301895F80932F
:104E4000310183E08093340124E630E047E050E014
:104E50006EE271E088E70E949828892B09F076CEEF
:104E600095E0440C551C9A95E1F78091810280FFF2
:104E70008AC0E1E6F2E080E2DF011D928A95E9F75F
:104E8000E4E8F1E0F98BE88B40E851E087E0A82EF8
:104E900099249394A889B9896D91B98BA88BFA014B
:104EA0008191AF01840D952D911D9C0124553C4F9E
:104EB0003F872E87E62FF0E0EF59FD4F90E080E02E
:104EC0006A2C681AB92C082E01C0BB0C0A94EAF7A8
:104ED0006E857F8500E0DB011D91BD011B21262D24
:104EE000201B2770822E022E000C330BB12F01C025
:104EF000BB0F8A94EAF78B2E3195219531092770E3
:104F0000332701C016952A95EAF7812A1081812A54
:104F100080820F5F0830F9F601963196883091054E
:104F200079F6E889F989E858F14009F0B3CF04E649
:104F300010E020E230E041E652E060E488E70E94C1
:104F4000B928892B09F002CE209430948091AA03CD
:104F50009091AB03282239223092AB032092AA030E
:104F6000F5CD8295880F8076809330019201369539
:104F700027953695279520933301815E80933101E3
:104F80002093340161CFA20144555C4F04E610E048
:104F900020E230E0D2CF81E050CE81E056CE81E0F9
:104FA00095CE81E09BCE09BD19BD09B400FEFDCFB1
:104FB0008091D8008F7D8093D8008091E00082603E
:104FC0008093E0008091E00081FDFCCF0E9481147D
:104FD0000FCD822B892B09F4A0CE9DCE2B3031052D
:104FE00008F04ACE7DCE2B30310508F0FCCD2FCE17
:104FF0001092B9008CE08093B8000895B0E0A0E072
:10500000E4E0F8E20C94BB2AB82EEB010E944E14A7
:105010006C01EE24E394F12CC431D10560F025E05D
:10502000E22EF12CCF3FDC0731F0CE0164E170E0DD
:105030000E94A02A7B0184EAA82E94E8992E10925F
:10504000BC00A092BC000E944E148C018091BC0058
:1050500087FF0DC08091B900887F8830F9F080917A
:10506000B900887F8031D1F00FEF1FEF08C0C80171
:105070000E943F14E816F90648F70EEF1FEFCF3FE6
:10508000DC07E9F2C6010E943F14C817D907B8F639
:10509000C801CDB7DEB7EBE00C94D72AB092BB00C5
:1050A0009092BC000E944E148C018091BC0087FF3E
:1050B0000AC08091B900887F883111F08034A1F650
:1050C00010E000E0E5CFC8010E943F14E816F906A1
:1050D00060F7D3CF0F931F93CF93DF93EB018093B0
:1050E000BB0084E88093BC000E944E148C01809128
:1050F000BC0087FF11C02091B900287F81E090E0BB
:10510000283211F490E080E0919581959109DF912A
:10511000CF911F910F910895CF3FDC0741F3C80154
:105120000E943F14C817D90710F78EEF9FEFEFCFFB
:10513000B0E0A0E0EEE9F8E20C94BE2A6B018A012F
:105140007901B9010E94FE27E6010C0D1D1DC01753
:10515000D10711F097FF08C024E92093BC00CDB718
:10516000DEB7E8E00C94DA2AB70189910E946A2838
:10517000EECFB0E0A0E0EFEBF8E20C94BE2AC62F31
:105180006A017901B8010E94FE2797FD0CC0B801A1
:105190008C2F0E946A28E601EC0CFD1CCE15DF0561
:1051A00011F097FF08C024E92093BC00CDB7DEB70B
:1051B000E8E00C94DA2AB80189910E946A28EECFBF
:1051C00084E98093BC0008958EE14A9B02C081501F
:1051D000E1F74A9BFECF08955A9880E28A95F1F74D
:1051E0005A9A0895FC013BE03A95F1F798E020E0E7
:1051F00080E031E040E14A95F1F7880F4A9B02C018
:105200008160232742E04A95F1F7000040E14A958A
:10521000F1F7915079F790E19A95F1F799B132E071
:105220003A95F1F7000040E14A95F1F792FB992792
:1052300090F992272081920F90830895A1E0B0E029
:10524000E4E2F9E20C94C02A19828C017C01E60E9A
:10525000F11C0E151F0541F481E09981911180E048
:105260002196E6E00C94DC2A0E94E428CE01019607
:105270000E94F228F80181938F01EBCF529A5A9A3B
:10528000089552985A9AEA9AE9E6F0E080818F7C74
:10529000808308956150770B91E001C0990F6A9562
:1052A000EAF720E031E0911108C0222391F05A9AE8
:1052B00080E28A95F1F75A980895492F482339F0EA
:1052C0005A9A232740E24A95F1F79695ECCF5A98DF
:1052D000F9CF5A98EDCFFF920F931F93CF93DF939F
:1052E000EC018C01060F111DC017D10729F4CDB7B1
:1052F000DEB7E5E00C94DD2AF9900E94EC2868E026
:105300008F2D0E944A29F0CF1F920F920FB60F9255
:1053100011240F931F932F933F934F935F936F939A
:105320007F938F939F93AF93BF93EF93FF93CF930D
:10533000DF930F92CDB7DEB719820E94E428CE0129
:1053400001960E94F228082F069506950695282FAB
:1053500022952570902F9570290F922F9370269586
:105360002695920F982797708981982B09F05CC039
:10537000053008F059C080E18A95F1F75A9A529A9F
:1053800082E08A95F1F700C05A9888E0089F800172
:105390001124D801A050BF4F1696ED91FC9117979C
:1053A0003097A9F0609174017091750114962D9158
:1053B0003C911597260F371F11968D919C9112974E
:1053C000680F791F13964C9113978C910995F801EA
:1053D000E050FF4F6381662351F0209174013091BA
:1053E000750184819581820F931F0E946B290E9411
:1053F000EC2880E18A95F1F75A9852985A9A80E100
:105400008A95F1F7F801E050FF4F6081662351F073
:10541000209174013091750181819281820F931FD7
:105420000E941E290E94E4280F90DF91CF91FF91E6
:10543000EF91BF91AF919F918F917F916F915F910C
:105440004F913F912F911F910F910F900FBE0F9091
:105450001F9018950F931F93CF93DF93EC0105973F
:105460000CF04CC0F894529A5A9885E08A95F1F75E
:1054700000009C2F969595708C2F8570980F892F22
:1054800083709695969523E0CC0FDD1F2A95E1F762
:10549000980F8E01092B0E94EC2800C068E0802F35
:1054A0000E944A2980E18A95F1F752985A9A4A9BBC
:1054B0001EC087E090E04A991CC0FE01E050FF4FFB
:1054C00063816623F9F02091740130917501848124
:1054D0009581820F931F0E941E29811113C0529A39
:1054E0005A9A7894DF91CF911F910F91089500C03F
:1054F000DECF019729F4529A5A9A789480E0F2CF3D
:1055000000C0D9CF0E94E42880E28A95F1F75A982A
:10551000529A80E18A95F1F7C050DF4F6881662387
:1055200051F0209174013091750189819A81820F27
:10553000931F0E946B290E94EC28789481E0D2CFBF
:10554000AA1BBB1B51E107C0AA1FBB1FA617B707A9
:1055500010F0A61BB70B881F991F5A95A9F78095C5
:105560009095BC01CD0108952F923F924F925F928A
:105570006F927F928F929F92AF92BF92CF92DF9263
:10558000EF92FF920F931F93CF93DF93CDB7DEB7C8
:10559000CA1BDB0B0FB6F894DEBF0FBECDBF09945C
:1055A0002A88398848885F846E847D848C849B84B3
:1055B000AA84B984C884DF80EE80FD800C811B81C1
:1055C000AA81B981CE0FD11D0FB6F894DEBF0FBEF0
:1055D000CDBFED010895991B79E004C0991F96177E
:1055E00008F0961B881F7A95C9F78095089597FB58
:1055F000072E16F4009407D077FD09D00E94A02A48
:1056000007FC05D03EF4909581959F4F08957095C5
:1056100061957F4F0895A1E21A2EAA1BBB1BFD01C5
:105620000DC0AA1FBB1FEE1FFF1FA217B307E40781
:10563000F50720F0A21BB30BE40BF50B661F771FD9
:10564000881F991F1A9469F76095709580959095B9
:105650009B01AC01BD01CF010895EE0FFF1F059026
:10566000F491E02D0994002E083090F0982F872FA8
:10567000762F652F542F432F322F22270850F4CF37
:10568000220F331F441F551F661F771F881F991F46
:105690000A95B2F7002D089597FD1094002E08305A
:1056A00098F00850232F342F452F562F672F782F2F
:1056B000892F912DF4CF15949795879577956795B8
:1056C00057954795379527950A95AAF71124002DE8
:1056D0000895FB01DC0102C005900D92415050403D
:1056E000D8F70895FB01DC0104C08D910190801969
:1056F00021F441505040C8F7881B990B0895FB01D5
:10570000DC0102C001900D9241505040D8F708953D
:10571000F999FECF92BD81BDF89A992780B5089579
:10572000A6E1B0E044E050E00C94D22BA8E1B0E058
:1057300042E050E00C94D22BDC01A40FB51F415085
:10574000504048F0CB01840F951F2E910E94AD2B45
:1057500041505040D0F70895262FF999FECF92BDC1
:1057600081BDF89A019700B4021639F01FBA20BD26
:105770000FB6F894FA9AF99A0FBE08950396272F58
:105780000E94AD2B0E94AC2B252F0E94AD2B242F05
:105790000C94AD2B0196272F0E94AD2B0C94AC2BB3
:1057A000DC01CB01FC01F999FECF06C0F2BDE1BDE1
:1057B000F89A319600B40D9241505040B8F70895D0
:1057C000F894FFCF9115B9155117B9155117EC156C
:1057D0000D1651170A171717201A241A021A1C1A25
:1057E000281A2C1A301A871AFC1A8F1A591A5D1A9D
:1057F000931A611A971AA31A6D1AF51A711AA71A31
:10580000751AAB1AD31A791AAF1ADA1A7F1AB51A9F
:10581000BD1A651A9B1A691A9F1A831AB91AC91AEE
:10582000E31AF31A531A8B1A031B0F1C0F1C471C85
:10583000471CF01C0C1D6F1C6F1C111D991DA81D11
:10584000A81D7B1BA41BAB1BB01BB51BBA1BBF1B2E
:10585000C41BC91BCE1BD31BD81B081A081A081A55
:0C586000081A081A081A081A081A081A70
:10586C000000000100000000000000040100000026
:10587C0004050000000000000B09000000000000FF
:10588C0001F407810E7A0E730E6C0EFF00200021BE
:10589C00007F220003003600363601818283E2004D
:1058AC00E900EA00B500B600B700CD008301CC00DA
:1058BC008A0192019401210223022402250226026C
:1058CC0027022A02B300B4006F0070009F01CB01C5
:1058DC009F02A0021B02946697C6F4F5F6F73133CB
:0A58EC000008101818100800000151
:00000001FF
