:100000000C9456070C9473070C9473070C94573197
:100010000C9473070C9473070C9473070C94730778
:100020000C9473070C9473070C9461190C94A31827
:100030000C9427240C9473070C9473070C94730787
:100040000C9473070C9473070C9473070C94730748
:100050000C9473070C94DA230C9473070C947307B5
:100060000C9473070C9473070C9473070C94730728
:100070000C9473070C9473070C9473070C94730718
:100080000C9473070C9473070C9473070C94730708
:100090000C9473070C9473070C9473070C947307F8
:1000A0000C9473070C9473070C9473078709FB096E
:1000B0008F0959095D09930960099609A1096B091E
:1000C000F1096F09A5097309A909D3097709AD09D0
:1000D000DD097D09B309BD0964099A0967099D090C
:1000E0008209B809C909E909EB0955098B09040A0C
:1000F0002D0A330A1E0A240A390A3F0A450A110B3F
:10010000110B430B430BB50BD30BF70CF70CD80BB0
:10011000660C770C770C4B0D740D790D7E0D830DED
:10012000880D8D0D920D970D9C0DA10DA80DAB0D99
:10013000AE0DB10DB40DB70DBA0DBD0DC00DC50D91
:10014000C216E9168118E91681183117541781185B
:100150004318561820202020616263646566676832
:10016000696A6B6C6D6E6F70717273747576777887
:10017000797A313233343536373839305245425452
:100180005F2D3D5B5D5C233B27602C2E2F202020C4
:1001900000DA0281FFD9F1DB20A4A62EAF00A0C0B7
:1001A000D30000A1C8D30000AED580A81F408D1495
:1001B00020001E0F0500047F3F1F643214643214B8
:1001C000783C1E1E140A05556E6465660041646A1B
:1001D000757374005261697365004C6F77657200C6
:1001E00044656661756C74004C617965723A2000F3
:1001F0003A002C206B00780080818283848586877A
:1002000088898A8B8C8D8E8F9091929394A0A1A2D5
:10021000A3A4A5A6A7A8A9AAABACADAEAFB0B1B236
:10022000B3B4C0C1C2C3C4C5C6C7C8C9CACBCCCD8C
:10023000CECFD0D1D2D3D40005010902A1018502CD
:100240000901A100050919012908150025019508D2
:10025000750181020501093009311581257F95025B
:100260007508810609381581257F95017508810675
:10027000050C0A38021581257F950175088106C095
:10028000C005010980A101850319012AB7001501E4
:1002900026B700950175108100C0050C0901A10168
:1002A000850419012AA002150126A00295017510E6
:1002B0008100C005010906A1018506050719E0298D
:1002C000E715002501950875018102050719002928
:1002D000EF1500250195F075018102050819012926
:1002E00005950575019102950175039101C0050100
:1002F0000906A101050719E029E715002501950860
:10030000750181029501750881010507190029FF12
:10031000150026FF009506750881000508190129BA
:10032000051500250195057501910295017503914B
:1003300001C009023B00020100A0FA09040000010B
:100340000301010009211101000122440007058178
:100350000308000109040100010300000009211144
:1003600001000122B60007058203200001120100EE
:100370000200000008534601000100010200010CC8
:100380000343006F0072006E0065000000100366FA
:10039000006F006F007300740061006E00000004C5
:1003A0000309040000000000003E5B4F5B3E003E7E
:1003B0006B4F6B3E001C3E7C3E1C00183C7E3C1884
:1003C000001C577D571C001C5E7F5E1C0000183C03
:1003D000180000FFE7C3E7FF00001824180000FF23
:1003E000E7DBE7FF0030483A060E00262979292688
:1003F00000407F05050700407F05253F005A3CE788
:100400003C5A007F3E1C1C0800081C1C3E7F001448
:10041000227F2214005F5F005F5F0006097F017F7B
:1004200000006689956A0060606060600094A2FFC9
:10043000A2940008047E04080010207E201000080A
:10044000082A1C0800081C2A0808001E101010109A
:10045000000C1E0C1E0C0030383E383000060E3EDC
:100460000E060000000000000000005F0000000019
:100470000700070000147F147F1400242A7F2A122B
:100480000023130864620036495620500000080714
:10049000030000001C224100000041221C00002A31
:1004A0001C7F1C2A0008083E0808000080703000ED
:1004B000000808080808000000606000002010081C
:1004C0000402003E5149453E0000427F4000007258
:1004D00049494946002141494D33001814127F1003
:1004E000002745454539003C4A4949310041211121
:1004F000090700364949493600464949291E000086
:1005000000140000000040340000000008142241E4
:10051000001414141414000041221408000201599C
:100520000906003E415D594E007C1211127C007F8D
:1005300049494936003E41414122007F4141413E07
:10054000007F49494941007F09090901003E4141B5
:100550005173007F0808087F0000417F41000020A0
:1005600040413F01007F08142241007F404040404D
:10057000007F021C027F007F0408107F003E414183
:10058000413E007F09090906003E4151215E007F7E
:10059000091929460026494949320003017F010310
:1005A000003F4040403F001F2040201F003F403898
:1005B000403F0063140814630003047804030061DF
:1005C00059494D4300007F41414100020408102079
:1005D00000004141417F000402010204004040400C
:1005E0004040000003070800002054547840007F7A
:1005F0002844443800384444442800384444287F80
:100600000038545454180000087E090200182424AD
:100610001C78007F080404780000447D400000201E
:1006200040403D00007F102844000000417F400012
:10063000007C04780478007C080404780038444482
:100640004438007C1824241800182424187C007CCA
:10065000080404080048545454240004043F44246B
:10066000003C4040207C001C2040201C003C4030CE
:10067000403C004428102844004C9090907C00445A
:1006800064544C440000083641000000007700002C
:10069000000041360800000201020402003C26234B
:1006A000263C0000000000000000000000000000E8
:1006B000000000C0E0F0F8F81800C0F0FCFEFFFFFA
:1006C000FFFFFFFFFF7E0000000000000000008031
:1006D000C0E0E0E0E0E0E0E0E0C08000000000809A
:1006E000C0E0E0E0E0E0E0E0E0C080000000E0E04A
:1006F000C0C0E0E0E0E00000E0E0C0C0E0E0E0E03A
:10070000E0C0800000000080C0E0E0E0E0E0E0E069
:10071000E0C08000000000000000000000000000B9
:1007200000E0F0F0F0E0ECEEF7F37020007C7C7C71
:100730007E007E7E7E7F7F7F000080C0E07E5B4FFC
:100740005BFEC00000C000DCD7DEDEDED7DC00C010
:100750000000000000000000000000000000000099
:10076000000000000000000000000000F8FCFEFF98
:10077000E000FFFFFFFFFFFF80FFFFFFFFFFFFFF26
:10078000FFFF1F0701000000000000000000FFFF46
:10079000FF8100000000000081C3C3C30000FFFF11
:1007A000FF8100000000000081FFFFFF0000FFFF4D
:1007B000FF01000000000000FFFFFF01000000003B
:1007C00001FFFFFF0000FFFFFF9D1C1C1C1C1C1CE9
:1007D0009DDFDFDF000000000000000000000000DF
:1007E000000F1F3F7F7F7F7F7F3F1E0C001F1F1F5B
:1007F0003F003F3F3F7F7F7F00307B7F783020206E
:1008000030787F3B0003000F7F0F0F0F7F0F000337
:1008100000000000000000000000000000000000D8
:10082000000000000000000000000000030F1F3F58
:100830003F3F3F1F1F3F3F7F7F7F3F3F1F3F7F7FE8
:100840007F7F7C7878381C0F0000000000000001DA
:100850000307070707070707070301000000000158
:10086000030707070707070707030100000007073B
:10087000070000000000000007070700000000005C
:10088000000707070000000103070707070707071E
:10089000070301000000000000000000000000004D
:1008A0000000000000000000000000000000000048
:1008B0000000000000000000000000000000000038
:1008C0000000000000000000000000000000000028
:1008D0000000000000000000000000000000000018
:1008E000000000000014001A0009001300050000B9
:1008F0000004281524162117220A0000001D001BE1
:100900000006000700190000000000000029432C29
:10091000422B41000034001C0018000F000D0000A5
:100920000012280C24082111221000000038003782
:100930000036000B000E000000000000004C462AAC
:1009400045284400000000000000000000000000F6
:1009500000E300E200E000E1000000000000000011
:100960000000000000000000000000000000000087
:100970000000000000000000000000000000000077
:10098000004F00520051005000737C00004D004E9B
:10099000004B004A0049000000000000004C002A03
:1009A000002800000000000000000000000000001F
:1009B00000E300E200E000E10000000000000000B1
:1009C0000000000000000000000000000000000027
:1009D0000000000000000000000000000000000017
:1009E00000D000CD00CE00CF0000000000DC00D918
:1009F00000DA00DB000000000000000000D300D29D
:100A000000D1000000000000000000000000000015
:100A100000000000000000000000000000000000D6
:100A200000000000000000000000000000000000C6
:100A300000000000000000000000000000000000B6
:100A400000AB00A900AA00AC0000000000000000FC
:100A500000000000000000000000000000A800AE40
:100A600000AD0000002F002400250026003000000B
:100A70000033002100220023002E00000035001E5C
:100A8000001F002000310000000000000037002798
:100A9000002D000000000000000000000000000029
:100AA00000E300E200E000E10000000000000000C0
:100AB0000000000000000000000000000000000036
:100AC00000000000002F022402250226023002004E
:100AD0000033022102220223022E02000035021EF0
:100AE000021F02200231020000000000002602273F
:100AF000022D0200000000000000000000000000C5
:100B000000E300E200E000E100000000000000005F
:100B100000000000000000000000000000000000D5
:100B20000000000000450040004100420046000077
:100B30000044003D003E003F004700000043003AF3
:100B4000003B003C004800000000000000000000E6
:100B50000000000000007C00000000000000000019
:100B6000000000000000000000000000000052072C
:100B7000520852095200000000000000000000006E
:100B80000000000000290014001A0008003A0000CC
:100B9000002B0004001600070009000000E000E13F
:100BA00000060010000E000000000000001E001FE4
:100BB0000020000000000000000000000000000015
:100BC00000000000000000000000000000005200D3
:100BD0000000000000000000000000000000000015
:100BE00000000000002C0010001A00380000000077
:100BF000002B000400160007000B0000001E001F61
:100C0000002000210022000000000000002300243A
:100C100000250000002E003D003C003B003A000093
:100C200000000000000D000C000600000000520053
:100C30000000000000000000000000000042003E34
:100C40000029000000290014001A00080015000007
:100C5000002B0004001600070009000000E000055A
:100C600000060010001900000000000000E2002C47
:100C700000245200000000000000000000000000FE
:100C80000000000000000000000B00000000520007
:100C90000000000100000000000000000000000053
:100CA00000E1002223252628292A2C2D2F3032333B
:100CB0003536383A3B3D3E4042434547494A4C4E23
:100CC0005051535557595A5C5E6062646668696B4F
:100CD0006D6F71737577797B7D7F81838587898A55
:100CE0008C8E90929496989A9C9E9FA1A3A5A7A85B
:100CF000AAACAEAFB1B3B4B6B8B9BBBCBEBFC1C28B
:100D0000C3C5C6C7C9CACBCCCDCED0D1D2D2D3D41D
:100D1000D5D6D7D7D8D9D9DADADBDBDBDCDCDCDC3B
:100D2000DCDDDDDDDDDCDCDCDCDCDBDBDBDADAD909
:100D3000D9D8D7D7D6D5D4D3D2D2D1D0CECDCCCB8B
:100D4000CAC9C7C6C5C3C2C1BFBEBCBBB9B8B6B4A9
:100D5000B3B1AFAEACAAA8A7A5A3A19F9E9C9A9839
:100D6000969492908E8C8A89878583817F7D7B790A
:100D7000777573716F6D6B6968666462605E5C5AEB
:100D80005957555351504E4C4A4947454342403EAE
:100D90003D3B3A3836353332302F2D2C2A29282640
:100DA00025232200AF00AE00010101010101010174
:100DB000010202020202020202020303030303030E
:100DC00003030404040404040405050505050606DC
:100DD000060606070707070708080808090909099A
:100DE0000A0A0A0B0B0B0C0C0C0D0D0D0E0E0E0F40
:100DF0000F0F1010111111121213131414151516D0
:100E0000161717181819191A1A1B1B1C1D1D1E1E40
:100E10001F20202122222324242526262728292991
:100E20002A2B2C2D2D2E2F303132323334353637BC
:100E300038393A3B3C3D3E3F4041424344454647BA
:100E400048494A4C4D4E4F50515354555658595A93
:100E50005B5D5E5F616264656668696B6C6D6F7037
:100E600072737577787A7B7D7E8082838587888AA6
:100E70008C8E8F91939596989A9C9EA0A2A3A5A7DD
:100E8000A9ABADAFB1B3B5B7BABCBEC0C2C4C6C9D9
:100E9000CBCDCFD1D4D6D8DBDDDFE2E4E7E9EBEE92
:100EA000F0F3F5F8FAFDFFFFAA7F554011241FBEAD
:100EB000CFEFDAE0DEBFCDBF11E0A0E0B1E0E4E0CB
:100EC000F9E602C005900D92A63CB107D9F727E0DC
:100ED000A6ECB1E001C01D92AD30B207E1F70E946F
:100EE000D10D0C9480340C940000A6E0B0E0EBE748
:100EF000F7E00C949B3249835A8349815A819923A4
:100F000061F0222351F0CA010E946F28182F682F28
:100F100089819A810E948D2A04C0CA010E945A2A9E
:100F2000182F69817A81812F0E941F1D2696E3E088
:100F30000C94B7320E941B2B2FEF84E39CE02150CE
:100F400080409040E1F700C000009AE088E10FB6D1
:100F5000F894A895809360000FBE90936000FFCF37
:100F6000ABE1B0E0E6EBF7E00C949A324E8B5F8B8E
:100F7000688F798F8A8F9B8F192F91111092660637
:100F8000DE011F9687E0FD0111928A95E9F786E060
:100F9000FE01769601900D928A95E1F70A8D002365
:100FA00041F021E04F85588969897A89C8010E94FA
:100FB00075070B8B1C8B87E0FE013F96DE011896B0
:100FC00001900D928A95E1F7CE0108960E94D328F0
:100FD00081112CC087E0FE013896DE011196019048
:100FE0000D928A95E1F76C85662301F12091A606A2
:100FF00030E0C9010196877099274091DF0650E0E3
:101000008417950761F16D8397E0929FD001939FBC
:10101000B00D1124A955B94FFE01319601900D92E2
:101020009A95E1F78093A6060E940C2817E080911C
:10103000DF069091A6068917F9F0189FC0011124C8
:101040008955994F0E94D3288823B1F08091DF06FB
:1010500090E00196877099278093DF06E8CF0E9481
:101060001B2B1092A6061092DF06EFE9F6E087E050
:10107000DF011D928A95E9F76B96E4E00C94B63295
:10108000A0E0B0E0E6E4F8E00C949532FC01848145
:10109000882309F481C57F0121E04081518162816B
:1010A000738195810E947507EC01F7018581882382
:1010B000C9F181818093FB0180818093FA0180E2F4
:1010C00080931101D093F901C093F801CE019052A1
:1010D0008115904228F4F7018681807F79F427C03A
:1010E000CE0190548115904120F4F7018681807FD4
:1010F00029F4CE019A9581159F4118F4FE01FF272E
:1011000007C0CE01805A9245809708F4C4C1FE0101
:10111000ED33F10508F0BFC1EC5AFE4FE491E093C6
:101120001101B9C1C337FCE7DF0709F4BFC18091E2
:101130006706882309F490C01091090700910A07F7
:101140000E941B2488579C4E9093EB018093EA01E8
:10115000F7018581882309F47FC0102B1D7909F0E0
:1011600076C0C034F2E5DF07B8F4C11522E5D20736
:1011700008F072C0C11580E4D80748F4C11590E2A8
:10118000D90740F5C63ED10509F040C065C0C1157C
:10119000E0E5DE07A0F13AC0C03EF2E5DF07A0F4CB
:1011A000C03C22E5D20708F057C0C03682E5D80718
:1011B00068F1C03A92E5D90708F44EC0C43BE2E5B5
:1011C000DE0709F449C022C0CE0187579C47029729
:1011D000E8F442C0F7018681807FA9F48D2F8F71DA
:1011E0008231B1F028F4823091F581EE90E012C0A6
:1011F000843191F1863159F586EE92E10BC0F70109
:101200008681807FA9F1CE01992704C0CE0102C05A
:1012100085EE90E0109266068832910530F48E31AA
:101220009105C0F4049798F00EC08D32910559F0E5
:1012300018F48A9779F00BC08C34910559F08D32EF
:10124000924041F004C082E08093660603C00E9491
:101250000C2602C00E94BA27FE01E851FC47E73085
:10126000F10508F4E7C0F7018581882309F4F5C387
:1012700010927706CE019057839708F039C184E029
:1012800090E00E9436339093810680938006FE01A1
:10129000E150F047E232F10520F4EA5AFF4F0C9496
:1012A0001134809180068160ACC080918106886095
:1012B000B4C0809180068260A4C08091800620C066
:1012C0008091800688609DC0809181061EC08091BB
:1012D00081068260A2C080918006806192C0809168
:1012E000800680628EC08091800680648AC00E94E1
:1012F0001B2B80918006806884C080918006886066
:1013000084607FC0809181068260816086C0809108
:1013100080068E7F76C080918106877F7EC0809117
:1013200080068D7F6EC08091800620C080918006EF
:10133000877F67C0809181061EC0809181068D7F66
:101340006CC0809180068F7E5CC0809180068F7D0E
:1013500058C0809180068F7B54C00E941B2B8091C7
:1013600080068F774EC080918006877F8B7F49C033
:10137000809181068D7F8E7F50C08091800682FB98
:10138000222720F991E0922790FB82F990FB83F9C4
:1013900038C080918106982F909591708E7F892B0F
:1013A00090FB81F93AC08091800686FB222720F9C4
:1013B00091E0922790FB86F924C00E941B2B80911C
:1013C000800687FB222720F991E0922790FB87F97E
:1013D00018C061E001C060E08EE090E00E944C33F4
:1013E0001EC08091800684FB222720F991E092277D
:1013F00090FB84F906C080918006982F909590FB11
:1014000080F9809380060BC08091810683FB2227A0
:1014100020F991E0922790FB83F9809381066091F7
:1014200080067091810684E090E00E946A330E94F9
:101430001B2B3CC0E858FF4F0C94113406E221EE00
:1014400041EE6AE17CE705C007E225EE45EE6BE17F
:101450007CE7C7010E94102529C006E221EE40EE7C
:1014600068E17CE7F6CF07E225EE44EE69E17CE730
:10147000F0CF06E221EE42EE6CE17CE7EACF07E234
:1014800025EE46EE6DE17CE7E4CF08E221E045EE93
:101490006EE17CE7DECFC3372CE7D20709F047CEF9
:1014A000809167068823A1F00E940C268091E006B7
:1014B000877009F471C3F7018581882309F46CC32F
:1014C0008091810682FF68C382E00E94D82A64C3AB
:1014D000109209070E9484270E941B2488579C4E63
:1014E0009093EB018093EA0181E080936706DECF61
:1014F000C6318CE7D80709F4A2C2F7018581882399
:10150000D9F1C330FCE7DF0721F140F4C1158CE7C6
:10151000D80789F0C130DC4711F12EC0CB35ECE79C
:10152000DE0739F1CC35FCE7DF07D9F0CA35DC47F7
:1015300019F581E01FC00E941B2B8FEF94E3ECE0B4
:1015400081509040E040E1F700C000000E94C923B4
:10155000ADCF6FEF7FEF80E090E00E946A330E9492
:101560009A078091810682FB882780F991E089277C
:1015700001C080E00E94EF2AF7018581C081D181FE
:10158000882349F0CE010E946F28182F682FCE01C2
:101590000E948D2A04C0CE010E945A2A182FBE0133
:1015A000812F0E941F1D0E943C1DD82FC92FC82EBD
:1015B000F7011581068102950F708091E006877012
:1015C00001F11123F1F0892F807F803469F080E2EE
:1015D0008D0F8830B0F0892F807E803229F4F1E0C1
:1015E000FD1778F4002369F08091810682FF09C01D
:1015F00082E00E94D82A8091E0068770DD24D3948F
:101600008111D12CBC2EB2948FE0B8228B2D90E0AA
:101610008C30910508F0EBC1FC01E158FF4F0C94B0
:1016200011348C2F807FCF70882311F0C295C07F3A
:101630001123B9F0CC2309F4C8C180E28D0F8830A2
:1016400010F0C11006C090910907C92BC09309077B
:1016500005C090916606C92BC09366060E94BA2702
:10166000B4C18D2F0E94212FCC2309F4C0C1D05EBC
:10167000D83088F1CC2079F1C09590916606C923C5
:10168000C09366062BC08C2F807FCF70803211F004
:10169000C295C07F8D2FCC2029F021E0C21609F41D
:1016A0004CC055C08091810682FD1BC0112369F09A
:1016B000CC2339F090910907C92BC09309070E94E8
:1016C000BA2780E00E94542F92C180E00E94212F0F
:1016D000CC2309F48CC18C2F0E94B3270E94BA2717
:1016E00086C1112381F00023B1F1013009F07FC1DF
:1016F00090910A078C2F8923C81709F478C1C92B48
:10170000C0930A0774C1011172C18C2F0E94242E4C
:1017100080910A079C2F982329F09C2F909589236C
:1017200080930A078091C9019C2F982309F45FC117
:10173000C0958C238093C9015AC1112321F0063032
:1017400008F055C108C0053008F051C10AC0112386
:1017500031F001113AC18C2F0E942B2E48C101118A
:1017600038C18C2F0E94242E42C18C2F86958695DD
:10177000837019F0813061F03AC1112321F08D2F6F
:101780009C2F937002C080E090E00E94DA2435C163
:10179000112321F08D2F9C2F937002C080E090E0E8
:1017A0000E94B5242AC1612F8D2F0E94352E25C19C
:1017B0008C2F837009F041C011111DC12D2F22956E
:1017C00026952770220F220F8D2F8F7090E0022E0A
:1017D00002C0880F991F0A94E2F7D4FF0BC04FE0B4
:1017E00050E002C0440F551F2A95E2F79A01209558
:1017F000309502C020E030E0C695C695C370C23077
:1018000099F068F440910B0750910C07C13029F012
:10181000822B932B8423952304C0842B952B822B1E
:10182000932B0E94162BE7C0822B932B20910B0742
:1018300030910C0782279327F4CF112319F08C2FB6
:10184000817001C08695882309F4D5C02D2F22957B
:1018500026952770220F220F8D2F8F7090E0022E79
:1018600002C0880F991F0A94E2F7D4FF0BC04FE023
:1018700050E002C0440F551F2A95E2F79A012095C7
:10188000309502C020E030E0C695C695C370C230E6
:1018900079F0B8F44091EF015091F001C13029F096
:1018A000822B932B842395230EC0842B952B09C068
:1018B000822B932B2091EF013091F0018227932707
:1018C00002C0822B932B0E94C12A95C0CF70112396
:1018D00039F08C2F0E94062B8D2F0E942B2E8BC04F
:1018E0008D2F0E94242E8C2F0E94C62A84C08D2FFB
:1018F000F2EFCF1689F1FC1538F020EFC21659F03F
:1019000091EFC91621F15DC0E3EFCE1661F1F4EF5E
:10191000CF16C9F056C0112391F0053008F067C00A
:10192000CF7181E090E002C0880F991FCA95E2F75D
:101930002091EF013091F0018227932721C00630DA
:1019400008F055C0EDCF8091810682FD1CC01123A7
:1019500029F08C2F8F7129C01123D9F38C2F8F710F
:101960000E94C62A44C0112349F0CF7181E090E063
:1019700002C0880F991FCA95E2F702C080E090E08C
:101980000E94C12A34C0112399F0CF718C2F0E947C
:10199000062B8091810682FF07C028E0C29FC0010C
:1019A000112483608093E0068C2F0E94062B1FC0B9
:1019B00081E00E94D82A0230D0F082E00E94D82A2A
:1019C00016C0112321F0002321F28D2F7BCE00239E
:1019D00029F2893349F48FEF97EEE3E0815090408C
:1019E000E040E1F700C000008D2F0E94212F88EF1A
:1019F0008B0D843010F40E94FF24DD20A9F080912B
:101A0000E00680FD11C0F7011582869586958695C2
:101A10000E94062BC7010E9440088091E00686952F
:101A2000869586950E94C62A20E0F7014081518163
:101A300062817381848195810E947507ADC0809118
:101A400009078A7A91E009F490E09093C801811126
:101A500012C089E20E947E240BC0C6319CE7D907E0
:101A600061F48091C801811195C089E20E945024DF
:101A70000E94BA271BCD85E3EDCF809109078272C2
:101A8000FE01E052F847E531F10508F036CDE557A3
:101A9000FF4F0C9411348091580680FF1EC0282FF0
:101AA0002E7F209358063091590640915A06509146
:101AB0005B0660915C0670915D0680915E06909178
:101AC0005F060E94CE2B0E94D1268091A4048160E3
:101AD0008093A4040E944C2BE9CC8160809358062B
:101AE00061E0869586954EC04DE05EE268E17EE25B
:101AF0002CC048E15EE26DE07EE227C047E95DE28E
:101B000061EA7DE222C041EA5DE267E97DE21DC053
:101B10004DE75DE26AE87DE218C04AE85DE26DE704
:101B20007DE213C043E65DE260E77DE20EC040E780
:101B30005DE263E67DE209C044EF5BE26EE07CE2D9
:101B400004C04EE05CE264EF7BE20E94CA26AECCA9
:101B500061E081E017C065E082E019C068E086E0DE
:101B600016C06EE089E013C064E18FE010C067E149
:101B700085E10DC061E088E105C062E289E107C04E
:101B800061E083E20E94C32D91CC6AE285E20E946B
:101B9000B5268CCC85E36ACFCDB7DEB7E9E00C94EF
:101BA000B132AEE0B0E0E7EDFDE00C948C3285B7E9
:101BB000806885BF85B7806885BF84B7877F84BF0D
:101BC0000FB6F894A89580916000886180936000BA
:101BD000109260000FBE90E080E80FB6F8948093FA
:101BE0006100909361000FBE8BE69AE19093C7016C
:101BF0008093C6010E94E7180E9406198091E200B6
:101C000084608093E200789480912E028823A1F072
:101C10001091E9001F709091EC00892F817090FD68
:101C200080E8182B1092E9008091E80083FD0E9463
:101C3000E1151F701093E90082E084BD93E095BD2B
:101C40009AEF97BD80936E001092CA011092CB015B
:101C50001092CC011092CD018091D80080618093C8
:101C6000D8002AE12A95F1F700C08091D900182FF9
:101C7000117080FD04C00E94E71810922E0210938C
:101C800078061093790610930401112341F0109205
:101C900048018BE1809349010E94123105C08BE11C
:101CA000809348018093490180910401809104014F
:101CB000882311F090E001C094E09093D70184E074
:101CC000891B8093D6010DE411E091E5C92E91E0C6
:101CD000D92ED8018D918D018F3F11F00E94991C52
:101CE000C016D106B1F701E511E087E5C82E81E005
:101CF000D82EF80181918F018F3F11F00E94991C1D
:101D0000C016D106B1F788E0E9EDF1E0DF01282F38
:101D10001D922A95E9F7EEECF1E0DF011D928A951C
:101D2000E9F780E090E00E943633863E9E4F11F046
:101D30000E94142782E090E00E9428338093E10102
:101D400084E090E00E943633909381068093800671
:101D50000E94881EEFEFF6E721E0E150F0402040BE
:101D6000E1F700C000000E94881E80917906882358
:101D700011F0E0E001C0E4E0F0E0E752FE4F8081C6
:101D800081FF08C06FEF7FEF80E090E00E946A3330
:101D90000E94C92383E090E00E94283390E00E94D3
:101DA000162B80917806811102C082E001C080E08C
:101DB00080931C0280E8809338020E94C82F6BE059
:101DC00070E087EA91E00E944A26882309F443C024
:101DD00080911C0265E070E081FD3AC082EA91E0EA
:101DE0000E944A268823B9F16DE070E080E991E015
:101DF0000E944A26882379F10E940F24DC01CB013E
:101E0000805A9541AF4FBF4F809360069093610613
:101E1000A0936206B0936306EBE3F2E080E092E009
:101E2000DF019C011D9221503040E1F7F093420404
:101E3000E09341048FEF9FEF90933A028093390231
:101E400081E0809365068093640610921D0203C0B2
:101E50008DE991E0C5CF8091D80181117EC080E0ED
:101E600090E00E943633863E9E4F21F00E94142758
:101E70000E94282C88E090E00E9430334B015C01E6
:101E800084E290E00E942833282F30E040E050E0C8
:101E900060E070E080E090E000E20E9426343401CF
:101EA0004501262937294829592920935806309376
:101EB000590640935A0650935B0660935C067093F4
:101EC0005D0680935E0690935F068091A404836014
:101ED0008093A4042C7F89F50E94282C88E090E050
:101EE0000E9430334B015C0184E290E00E94283371
:101EF000282F30E040E050E060E070E080E090E0CB
:101F00000E942634B22FA32FF42FE52F6B019501E9
:101F10008401B829A12BF22BE32BB0935806A09390
:101F20005906F0935A06E0935B0660935C06D092E4
:101F30005D0680935E0690935F060E94B32B0E941D
:101F4000D1268091580680FF05C060E08695869571
:101F50000E94C32D81E08093D80180917806811181
:101F600002C00E94153185E091E090937D06809338
:101F70007C0680912E02853009F048C010E4D12EF5
:101F800000E112E180912E02853009F03BC0809182
:101F90002E02843029F10E9475261092820648E1B3
:101FA00050E00FB6F894A895409360000FBED09211
:101FB000600083B7817F846083BF83B7816083BF04
:101FC0007894889583B78E7F83BF0FB6F894A895D1
:101FD00080916000886180936000109260000FBE65
:101FE00080912D02882309F4CDCF0E94881EE9ED4F
:101FF000F1E08191811140C481EE91E08E179F073D
:10200000C1F7C0CF0E941B2B0E94FF240E94881E94
:10201000A2EECA2EA1E0DA2EB9ED8B2EB1E09B2EF6
:102020002AEE31E0D401F60191918D9189272E1786
:102030003F0719F08823C1F306C0811104C00E9434
:10204000641E912C38C06090780610E0552453949B
:10205000D4017D904D01F601A080A72411F100E08C
:10206000BB24B3948B2D8A21B1F06620A1F00F839D
:1020700018870E941B249A8789875B8691E08B2DA5
:10208000872109F490E09C874F81588569857A857E
:102090008B850E94B0070F5FBB0C063019F7D60185
:1020A0007C921F5FBFEFCB1ADB0A183089F60E94C3
:1020B000B01C9924939480917806882389F08091AC
:1020C0006706882369F00E941B242091EA01309161
:1020D000EB01821B930B8F3F9F4710F40E940C264D
:1020E0008091A304882309F4D0C08091A204E091D8
:1020F0005806E695E695E81BE0939E04823059F475
:10210000F0E0ED53FE4FE4910E2F10E0F7E7CF2EF5
:10211000F3E2DF2E6BC0863059F4F0E0E054FE4F5E
:10212000E4910E2F10E0E7E6CE2EE3E2DE2E5EC055
:10213000893061F4E695F0E0E354FE4FE4910E2F10
:1021400010E074E1C72E72E2D72E50C08F3061F4D8
:10215000E695F0E0E654FE4FE4910E2F10E068E8BB
:10216000C62E61E2D62E42C0853159F4F0E0E95422
:10217000FE4FE4910E2F10E052E0C52E51E2D52E15
:1021800035C08831F9F0833249F4E5EBF1E005918F
:1021900014914DE2C42E43E2D42E28C08432C9F0FB
:1021A0008532F1F48E2F63E00E94E333E92FF0E0F3
:1021B000EE54FE4FE4910E2F10E03EE4C32E32E2C7
:1021C000D32E14C008E210E02DE7C22E20E2D22E5A
:1021D0000DC004EF11E09EE3C92E90E2D92E06C097
:1021E00000ED17E08DE3C82E80E2D82E80919F0489
:1021F000882361F010929F040E94591E90939D04C1
:1022000080939C041092A1041092A0040E94591E75
:10221000E0919C04F0919D049C012E1B3F0B2F3FED
:102220003F4798F52091EE012223B1F01092EE0184
:102230002091EC013091ED01821B930B8F3F9F4762
:1022400058F4205D3A483093ED012093EC018091E1
:10225000A40488608093A404A090A004B090A1047A
:102260000E0F1F1F10939D0400939C048CE994E0B3
:10227000F60109958091A0049091A104892B29F47D
:10228000AB2819F081E08093EE01809165068823E8
:1022900009F4E8C180911E0290911F020E9400245F
:1022A000C29708F4D5C00E941B2490931F0280930C
:1022B0001E028BE392E0909342048093410480914C
:1022C0007806882309F4C0C088EE91E00E94B61514
:1022D0009091EF018091F001E82EF12CE114F104CE
:1022E00021F4E92EF82E80E001C088E09701B4E0E7
:1022F00036952795BA95E1F72115310511F08C5FD8
:102300007901970136952795369527952115310541
:1023100011F08E5F7901970136952795232B09F0EF
:102320008F5F813059F038F0823059F0833061F49A
:102330008DEC91E00BC080EE91E008C08AED91E059
:1023400005C084ED91E002C087EC91E00E94C415C5
:102350008091FB01805D0E94371586EF91E00E941D
:10236000B6158091FA01805D0E94371582EF91E0E9
:102370000E94B6154090F8015090F90180910F012C
:10238000909110014816590639F48091F701803276
:1023900019F481EF91E03AC05092100140920F0180
:1023A00080E28093F701612C712C1092F601E6EF28
:1023B000CE2EE1E0DE2E00E010E0C301B2012AE003
:1023C00030E040E050E00E94B233605D603319F4C9
:1023D0000115110539F0411451046104710419F417
:1023E00060E201C060E3D6016E936D01C301B201EA
:1023F0002AE030E040E050E00E94B23329013A0187
:102400000F5F1F4F05301105C1F6C3CF6C01019658
:10241000F60120812032D1F301900020E9F78F01ED
:1024200001501109C016D10630F4D6018D916D010D
:102430000E943715F7CF80EF91E00E94B61580918A
:1024400011010E94371504C088EF91E00E94B61573
:102450008091390290913A02892B31F4809164067F
:10246000882309F4FFC0E7C0809165068823B1F393
:1024700080911D028111F2CF0E948F262091390296
:1024800030913A022115310549F380E0282E312C94
:1024900066246394712C082E02C0660C771C0A9483
:1024A000E2F7A30142235323452B11F48F5FEECFB4
:1024B00090911C02910165E0220F331F6A95E1F7AC
:1024C00090FF13C055E0369527955A95E1F7220FF6
:1024D000220F220F2093140110921701295F2093DD
:1024E000150183E08093180111C0220F232F221FB2
:1024F000330B31958295880F807680931401209359
:102500001701815E809315012093180124E630E0C5
:1025100047E050E062E171E088E70E947030892B6B
:1025200009F09CCF80911C0280FF64C080E2ECEF38
:10253000F1E0DF011D928A95E9F735E0220C331CAA
:102540003A95E1F7EBE5F1E0FE87ED8767E571E0AD
:10255000AD85BE858D91BE87AD87FB019191BF0191
:102560009101290F311DA901455C5D4F2A0190E0C1
:1025700084509E4FFC0107E09F01281B390BCC249F
:10258000C39401C0CC0C2A95EAF7A201D12CDA0140
:102590001D91AD011C21202F2D192770B22E022E66
:1025A000000C330BB12F01C0BB0FBA94EAF7BB2E5E
:1025B0003195219531092770332701C016952A9549
:1025C000EAF7B12A1081B12AB082D39428E0D2125E
:1025D000DECF015031960F3F79F64D855E854F5520
:1025E000514009F0B5CF04E610E020E230E04CEFB6
:1025F00051E00DC0C10125E0880F991F2A95E1F730
:10260000AC01455C5D4F04E610E020E230E060E4A0
:1026100088E70E949130892B09F020CF6094709454
:102620008091390290913A026822792270923A029E
:102630006092390213CF0E940F240091600610911E
:1026400061062091620630916306DC01CB01801B9C
:10265000910BA20BB30B8F3F9F4FAF4FBF4710F4AF
:102660000E94752691100E948F2686E0EFE6F6E024
:10267000DE01119601900D928A95E1F7B0907006F7
:1026800010917106D090720600917306C090740686
:1026900010927106109272061092730610927406D0
:1026A000111103C0DD2009F447C080916D0690919F
:1026B0006E060E9400249C0190916806992309F4FB
:1026C000F1C025313105C0F19F3F19F09F5F909314
:1026D0006806112361F00E94DE25111614F491E0C2
:1026E00001C09FEF899F802D112480937106DD200A
:1026F00061F00E94DE251D1414F09FEF01C091E0EF
:10270000899F802D11248093720680917106882301
:1027100099F0A0907206AA2079F00E94FE258111FE
:1027200001C081E0809371068A2D0E94FE258111EF
:1027300001C081E080937206011103C0CC2009F42E
:1027400047C080916B0690916C060E9400249C010A
:1027500090916906992309F4AAC021353105C0F189
:102760009F3F19F09F5F90936906002361F00E94DC
:10277000BC25101614F491E001C09FEF899F802DB5
:10278000112480937306CC2061F00E94BC251C1498
:1027900014F09FEF01C091E0899F802D1124809358
:1027A000740680917306882399F0A0907406AA207D
:1027B00079F00E94FE25811101C081E080937306AB
:1027C0008A2D0E94FE25811101C081E0809374064C
:1027D000809170068B111AC080917106882311F0C8
:1027E000181314C080917206882311F0D8120EC0FD
:1027F00080917406882311F0C81208C09091730666
:10280000992331F081E0091304C002C081E001C0C6
:1028100080E080FD15C08091710681110FC080910C
:10282000720681110BC080917306811107C081E08F
:1028300090917406911103C080E001C081E080FD99
:102840000E949225BA821B83DC820D83CE8286E0B1
:10285000FE013196AFE6B6E001900D928A95E1F760
:102860000E94FF2490912002891709F482CB809363
:1028700020020E940F247DCB09BD19BD09B400FEC2
:10288000FDCF8091D8008F7D8093D8008091E000AB
:1028900082608093E0008091E00081FDFCCF0E9487
:1028A0001B2B70CB2B30310508F010CF45CF2B30D0
:1028B000310508F057CF8CCF8091300287FF11C0CF
:1028C0008091E80082FD05C080912E028111F8CF31
:1028D00011C08091E8008B770BC080912E02882375
:1028E00049F08091E80080FFF8CF8091E8008E7772
:1028F0008093E8000895982F973068F59093E90049
:10290000981739F07091EC002091ED005091F00093
:1029100003C0242F762F50E021FD02C09F5FECCF33
:102920003091EB003E7F3093EB003091ED003D7F26
:102930003093ED003091EB0031603093EB007093F9
:10294000EC002093ED005093F0002091EE0027FD65
:10295000E5CF80E008958F708093E90081E00895CD
:1029600020913602309137022617370748F061155B
:10297000710539F42091E8002E772093E80001C01A
:10298000B901FC0120E06115710579F180912E02F9
:102990008823F1F18530F1F18091E80083FD3CC09E
:1029A0008091E80082FD2EC08091E80080FFEBCF8F
:1029B0002091F3008091F20090E0922B6115710557
:1029C00051F08830910538F421912093F100615045
:1029D00071090196F3CF21E0089709F020E080917A
:1029E000E8008E778093E800CECF2111CFCF0AC0C8
:1029F00080912E02882361F0853061F08091E8009B
:102A000083FD0AC08091E80082FFF2CF80E0089544
:102A100082E0089583E0089581E0089543E050E066
:102A2000BC0182E00E948B23089546E050E0BC0187
:102A300082E00E948B23089540E250E0BC0182E0D6
:102A40000E948B230895CF93DF93EC0148E050E080
:102A5000BC0181E00E948B2388E0FE01A4E2B2E089
:102A600001900D928A95E1F7DF91CF910895CF9370
:102A7000DF93682F8A3011F481E003C08D3021F498
:102A800080E00E941A266FC0809141049091420418
:102A900026E0FC01ABE3B4E001900D922A95E1F74A
:102AA000603E30F026E0FC0111922A95E9F70AC059
:102AB000F6E06F9FB00111246D557C4F46E050E069
:102AC0000E941F33C0914104D091420446E050E07F
:102AD000BE018BE394E00E946A34892B49F19E0188
:102AE0002B533240A90185E0569547958A95E1F729
:102AF00081E090E0BC0102C0660F771F4A95E2F7C3
:102B00004091390250913A02462B572B2B5F3F4F91
:102B100065E0369527956A95E1F702C0880F991F01
:102B20002A95E2F7842B952B90933A0280933902F1
:102B30009E012553324040913802642F70E0C90154
:102B40000E947832481B463010F4240F311D2115A5
:102B500082E0380710F020E030E0255C3D4F3093F4
:102B6000420420934104DF91CF910895CF93DF93E6
:102B7000EC01FE018491882321F00E9437152196F3
:102B8000F8CFDF91CF9108950E94B61581E00E94A1
:102B90001A260895FC01AC014C5F5F4F8FEF91E363
:102BA0002191822728E030E087FF03C0880F892722
:102BB00001C0880F21503109B9F7E417F50781F7F3
:102BC0000895AAE2B0E0E7EEF5E10C949B32E0E371
:102BD000F2E088E392E02091F10021938E179F07A5
:102BE000D1F780913102833009F461C030F4813033
:102BF00071F0823009F49BC0B2C08A3009F487C0FA
:102C00008B3009F46CC0893009F0A9C020C08091D4
:102C10003002813A09F0A3C08091E800877F809359
:102C2000E8008091340290913502892B21F468E00C
:102C300084E292E003C060E080E090E070E00E94F7
:102C4000B0148091E8008B778093E80088C0809171
:102C50003002813209F083C08091340290913502B4
:102C6000029708F07CC08091E800877F8093E8009D
:102C70008091E80082FD05C080912E028111F8CF7D
:102C80006EC02091F3008091F20090E0922B0297A9
:102C900031F48091F100813011F0863021F480917F
:102CA000F100809323028091E8008B7754C08091DB
:102CB0003002813A09F053C080913402909135027C
:102CC000892B09F04CC08091E800877F8093E80051
:102CD0008091E80080FFFCCF8091190137C080917E
:102CE00030028132E1F58091340290913502892BD6
:102CF000B1F58091E800877F8093E8000E945C1422
:102D000080913202809319010E941B2B28C0809170
:102D10003002813221F58091E800877F8093E800BE
:102D20000E945C14809133028093220218C080912B
:102D30003002813AA1F48091E800877F8093E80017
:102D40008091E80080FFFCCF809122028093F10007
:102D50008091E8008E778093E8000E945C14809157
:102D6000E80083FFCEC18091300290913102492F5B
:102D700050E04A30510508F0C4C1FA01E056FF4F57
:102D80000C941134803821F0823809F0BAC108C09F
:102D900080912C0290912D02992389F082600FC0BE
:102DA000809134028F70873008F0ABC18093E900C6
:102DB0008091EB0085FB882780F91092E9009091C3
:102DC000E800977F9093E8008093F1001092F10063
:102DD00065C1282F2D7F09F094C1882319F0823016
:102DE00061F08FC180913202813009F08AC1933045
:102DF00009F080E080932D022EC080913202811173
:102E00002AC0809134028F702FEF280F263008F0EF
:102E100078C18093E9002091EB0020FF1CC0933023
:102E200021F48091EB00806214C09091EB009061DE
:102E30009093EB0021E030E0A90102C0440F551F40
:102E40008A95E2F74093EA001092EA008091EB0045
:102E500088608093EB001092E9008091E800877F02
:102E600020C181114EC1109132021F778091E30081
:102E70008078812B8093E3008091E800877F8093A6
:102E8000E8000E945C148091E80080FFFCCF8091F4
:102E9000E30080688093E300111102C082E001C06A
:102EA00083E080932E022DC18058823008F029C122
:102EB00080913202909133028C3D53E0950779F571
:102EC00083E08A838AE289834FB7F894DE01139600
:102ED00020E03EE051E2E32FF0E050935700E49110
:102EE00020FF03C0E295EF703F5FEF708E2F90E000
:102EF000EA3010F0C79601C0C0968D939D932F5F66
:102F0000243149F74FBF8091E800877F8093E80024
:102F10006AE270E0CE0101960E94B014AEC040910A
:102F2000340250913502292F332723303105A9F07F
:102F300068F42130310509F4F3C02230310509F07D
:102F4000E0C08BE390E0E2E3F3E044C021323105DE
:102F500021F12232310571F1D4C0992781309105D8
:102F6000A1F058F0029709F0CCC0EFE7F3E0E4914C
:102F70008E2F90E0EFE7F3E02AC0EFE9F3E0E49171
:102F80008E2F90E0EFE9F3E022C0EDE8F3E0E4916A
:102F90008E2F90E0EDE8F3E01AC04115510509F4D9
:102FA000C4C04130510509F0ACC089E090E0EDE5C6
:102FB000F3E010C04115510509F4BCC04130510582
:102FC00009F09FC086EB90E0E8E3F2E003C00097D1
:102FD00009F497C02091E800277F2093E800209112
:102FE0003602309137028217930708F49C0140E0C3
:102FF0002115310589F180912E02882309F43DC005
:103000008530D9F18091E80083FD37C08091E800D8
:1030100082FD2FC08091E80080FFEACF4091F3004D
:103020008091F20090E0942B2115310559F0883001
:10303000910540F444914093F100319621503109BB
:103040000196F2CF41E0089709F040E08091E80056
:103050008E778093E800CCCF4111CDCF0AC080910C
:103060002E02882351F0853041F08091E80083FDE5
:1030700004C08091E80082FFF2CF8091E8008B7756
:103080008093E8003EC08038E1F58091E800877FBA
:103090008093E80080912F028093F1008091E800F6
:1030A0008E778093E8000E945C142BC0811129C0A8
:1030B00080913202909133029927029714F5809102
:1030C000E800877F8093E8001091320210932F026E
:1030D0000E945C14111106C08091E30087FD02C0BC
:1030E00081E001C084E080932E0242E061EC81E047
:1030F0000E947B1442E261EC82E00E947B1480918A
:103100002E028091E80083FF1AC08091E800877F3B
:103110008093E8008091EB0080628093EB000FC009
:1031200082E190E0EDE6F3E055CF89E090E0E4E461
:10313000F3E050CF84E490E0EEEEF2E04BCFAA96BD
:10314000E3E00C94B7321F920F920FB60F92112446
:103150002F933F934F935F936F937F938F939F939F
:10316000AF93BF93CF93DF93EF93FF93C091E900A9
:10317000CF708091EC00D82FD17080FDD0E81092F4
:10318000E9008091F000877F8093F00078940E949E
:10319000E1151092E9008091F00088608093F000C2
:1031A000CD2BCF70C093E900FF91EF91DF91CF91CC
:1031B000BF91AF919F918F917F916F915F914F914F
:1031C0003F912F910F900FBE0F901F901895E8ED33
:1031D000F0E080818E7F80831092E2001092DA000E
:1031E0001092E100A0EEB0E08C9181608C93808120
:1031F0008F77808319BCA7EDB0E08C918E7F8C9384
:1032000080818F7E8083109221020895A0E0B0E03B
:10321000ECE0F9E10C949632C8EDD0E088818F7E25
:103220008883E7EDF0E080818160808384E082BF65
:1032300081E08093210288818E7F888302EE10E0F6
:10324000F80110821092DA0081EEC82ED12CF6011E
:10325000108288818F7788838881806888838881BD
:103260008F7D888319BC10922E0210922F0210922B
:103270002D0210922C0290EEE92EF12CF7018081A4
:103280008B7F808388818160888342E060E080E07A
:103290000E947B14F60180818E7F8083F8018081FB
:1032A00081608083808188608083F70180818E7F48
:1032B0008083888180618883CDB7DEB7E8E00C9495
:1032C000B2321F920F920FB60F9211242F933F9399
:1032D0004F935F936F937F938F939F93AF93BF931E
:1032E000EF93FF938091E10082FF09C08091E2009B
:1032F00082FF05C08091E1008B7F8093E100809187
:10330000DA0080FF2AC08091D80080FF26C080911B
:10331000DA008E7F8093DA008091D90080FF18C098
:1033200080E189BD82E189BD09B400FEFDCF81E065
:1033300080932E028091210281110FC00E94E71814
:103340000E9406198091E20084608093E20005C02B
:1033500019BC10922E02109221028091E10080FF90
:1033600017C08091E20080FF13C08091E2008E7F41
:103370008093E2008091E20080618093E20080917E
:10338000D80080628093D80019BC85E080932E021B
:103390008091E10084FF30C08091E20084FF2CC066
:1033A00080E189BD82E189BD09B400FEFDCF809135
:1033B000D8008F7D8093D8008091E1008F7E80932C
:1033C000E1008091E2008F7E8093E2008091E20034
:1033D00081608093E20080912F02882311F084E0C5
:1033E00007C08091E30087FD02C081E001C083E057
:1033F00080932E0280912E028091E10083FF27C0EE
:103400008091E20083FF23C08091E100877F809359
:10341000E10082E080932E0210922F028091E10061
:103420008E7F8093E1008091E2008E7F8093E200A6
:103430008091E20080618093E20042E060E080E001
:103440000E947B148091F00088608093F000FF91CF
:10345000EF91BF91AF919F918F917F916F915F910C
:103460004F913F912F910F900FBE0F901F90189585
:103470002091E4003091E50095E64091EC00842F26
:10348000817040FF23C08091E80080FD1DC08091C5
:103490002E02882399F0853099F08091EB0085FD0C
:1034A00011C04091E4005091E5002417350729F33D
:1034B000915011F09A01E1CF84E0089582E00895DF
:1034C00083E0089581E0089580E008954091E80048
:1034D00042FFDDCF089580E008959091800692FF2D
:1034E00010C041E0282F2471243009F040E031E081
:1034F000282F2871283009F030E0431711F02CE014
:10350000822793FF10C041E0282F2471243109F055
:1035100040E031E0282F2871283109F030E04317CE
:1035200011F02CE082273091810630FF10C051E06D
:10353000282F2171213009F050E041E0282F287117
:10354000283009F040E0541711F029E0822731FFBC
:1035500010C041E0282F2171213109F040E031E015
:10356000282F2871283109F030E0431711F029E0A5
:10357000822794FD877E08958238910569F1B0F421
:103580008133910509F475C048F48932910509F435
:1035900067C08A32910509F471C008958533910599
:1035A00009F459C089339105B9F00895833E910516
:1035B00089F138F4803E9105D1F0823E910529F1E0
:1035C0000895863E9105C9F1873E9105D9F1843E63
:1035D000910509F06CC027C02091800620FD57C0DE
:1035E00021FD55C02091810623FD5BC00895809187
:1035F000800680FD48C08091810680FF48C0809190
:10360000800684FD46C083EE51C08091800682FF13
:103610003CC0F5CF8091800682FD37C08091810645
:1036200080FD35C0ECCF8091810681FF36C080914E
:10363000800684FD2EC087EE39C08091800683FF0E
:103640002AC0F5CF8091800683FD25C08091810638
:1036500081FD23C0ECCF8091800685FD22C01FC074
:103660008091800685FD1BC08091810683FF19C073
:103670000AC08091800686FD16C017C08091800622
:1036800086FD13C010C089E311C082EE0FC080EE2A
:103690000DC080E00BC086EE09C084EE07C085E354
:1036A00005C089E203C08AE201C081E390E0089589
:1036B000A0E0B0E0EEE5FBE10C9494327C015B010C
:1036C0006A01809173048A3018F001E010E002C0B2
:1036D0000AE010E0C1E0D0E0B501C701F6010995AC
:1036E000811115C021960C171D0794F0CC9F9001F5
:1036F000CD9F300D300D112480E090E045E34A95D8
:10370000F1F70000019682179307C1F7E5CF81E03A
:10371000CDB7DEB7EAE00C94B032ABE0B0E0E3E95D
:10372000FBE10C949C3288E0E8E5F6E0DE011196BE
:1037300001900D928A95E1F78091A2049091A304E3
:10374000A091A40489879A87AB872B8540916F0449
:103750005091700460917104709172043FB7F894B5
:103760008091830690918406A0918506B09186068B
:103770003FBF841B950BA60BB70B84369105A105A3
:10378000B10510F4222319F1809133019091340195
:10379000855A9B4F4091320150E04C30510510F05A
:1037A0004BE050E0BE016F5F7F4F0E94773483E0B3
:1037B00090E00E94FD31882369F00E940F246093FD
:1037C0006F0470937004809371049093720410924C
:1037D000A40481E02B96E2E00C94B832EF92FF92C1
:1037E0001F93CF93DF9300D000D01F92CDB7DEB7E9
:1037F0007B0180E090E00E94FD31882309F463C0E2
:1038000040911D0150E04115510511F041E050E09B
:1038100060911E0170911F01655A7B4FCE01059684
:103820000E947734409153045091540460915504A0
:10383000709156042FB7F894809183069091840676
:10384000A0918506B09186062FBF841B950BA60B11
:10385000B70B84369105A105B10538F48CE594E0E9
:103860000E94CA159D81891781F181E090E00E9434
:10387000FD31182F882391F04091250150E045300B
:10388000510510F044E050E060912601709127014D
:10389000655A7B4FCE0101960E9477348CE594E007
:1038A0000E94CA1591E02D81281390E0192341F15F
:1038B0000E940F2460935304709354048093550422
:1038C000909356040FC010E001C011E080915C0499
:1038D00090915D04A0915E04B0915F0489839A8306
:1038E000AB83BC83112361F089819A81AB81BC8158
:1038F00080934F0490935004A0935104B0935204CA
:1039000080914F0490915004A0915104B0915204C1
:10391000F70180839183A283B383812F0F900F904F
:103920000F900F900F90DF91CF911F91FF90EF902C
:103930000895F894E82FE295EF70F0E031A1282F78
:103940002F7081E090E001C0880F2A95EAF7982F48
:103950009095932391A392A1892B82A378940895A3
:103960000F931F9380917806882319F00E940F24EB
:103970000EC00E940F240091CA011091CB0120912A
:10398000CC013091CD01600F711F821F931F1F91D9
:103990000F910895A4E0B0E0E0EDFCE10C949C32BE
:1039A00040915704509158046091590470915A0401
:1039B0002FB7F8948091830690918406A091850694
:1039C000B09186062FBF841B950BA60BB70B8436D0
:1039D0009105A105B10570F10E94B01CDC01CB017D
:1039E0000296A11DB11D89839A83AB83BC8380910C
:1039F0002B0190912C01855A9B4F40912A0150E058
:103A00004530510510F044E050E0BE016F5F7F4F3C
:103A10000E94773482E090E00E94FD31882359F0C3
:103A20000E940F24609357047093580480935904A4
:103A300090935A0481E02496E2E00C94B8327830F6
:103A4000B0F46630A0F48A30A0F490E3899FF001CE
:103A5000112486E0789FE00DF11D1124E60FF11D81
:103A6000EE0FFF1FED51F74F85919491089580E07F
:103A700001C081E090E008951F93CF93DF930E94EF
:103A8000BC1AEC01C11580E5D807E8F5C11590E432
:103A9000D90708F0A8C0C03ED10530F5CD3CD1050E
:103AA00008F094C0C83AD10578F4C53AD10508F0B9
:103AB00083C0C130D10509F47CC008F4F2C0C43021
:103AC000D10508F0F1C0EDC0C33CD10508F0E9C054
:103AD000C85AD0E0CC0FDD1FCE59DE4F0990D881F7
:103AE000C02DCE019464E1C0C11580E2D80708F072
:103AF000CBC0C11591E0D90708F06BC0C83ED10515
:103B000008F4D2C0CEC0C03682E5D80728F5C0344C
:103B100092E5D90708F079C0C03282E5D80708F0ED
:103B20006CC0C11592E5D90708F481C04C2F4695A9
:103B3000469580E2489FA0011124C37021E030E047
:103B4000C90102C0880F991FCA95E2F7EA01C82B84
:103B5000D92BCE019D68A9C0C03A82E5D807B8F438
:103B60008C2F8F71C03892E5D90708F07BC08695FD
:103B7000869590E2899F90011124C37081E090E0C6
:103B800002C0880F991FCA95E2F79A6868C0C03CC6
:103B900082E5D80708F46DC0C03E92E5D90708F069
:103BA00080C0CF71DD27DC2FCC27CE01806F906ADB
:103BB0007CC081E090E079C0C55AD0E0C15ADE4FA8
:103BC0008881C82FD0E0CE0190646FC0CE0190658F
:103BD0006CC08D2F0E946D1A182FCE0199270E945C
:103BE000BC1A1F715CC0CE0199270E94BC1ACC2759
:103BF000DF70D06A8C2B9D2B58C0CF71D0E0DC2FAA
:103C0000CC27CE01816F906A50C08C2F8F71869522
:103C1000869590E2899F90011124C37081E090E025
:103C200002C0880F991FCA95E2F79C6818C08C2FB4
:103C30008F710E946D1A95E0D695C7959A95E1F718
:103C4000CF70D0E0DC2FCC27282F30E084FF05C0D8
:103C500084E0220F331F8A95E1F7D069CE01822BD1
:103C6000932B23C090E0D82FCC27CE01846F906A8D
:103C70001CC08C2F8F710E946D1A8F7190E0D82F0D
:103C8000CC27CE01906211C08D2F8F710E946D1ACA
:103C9000182FCE0199270E94BC1A1F719062912B98
:103CA00004C080E090E001C0CE01DF91CF911F9170
:103CB000089580917806882319F00E941B240895A6
:103CC0000E94B01CCB010895A6E0B0E0EAE6FEE158
:103CD0000C949A320E941B248C0180914304909191
:103CE00044040817190781F019821A820E941B24C4
:103CF000682F49815A81792F80E090E00E94B007B7
:103D000010934404009343042696E4E00C94B632E6
:103D1000ACE0B0E0EEE8FEE10C948F32AE014F5F14
:103D20005F4F7A0188E0DA011D928A95E9F70DE488
:103D300011E06A0181E5682E81E0782EAA24A3941F
:103D4000B12C27E5822E21E0922EF80180818F3F51
:103D500009F440C0F894E82FE295EF70F0E021A15B
:103D60008F70A50102C0440F551F8A95E2F7CA0162
:103D7000922F982B91A392A18095892382A3789466
:103D800000C0E1E5F1E0512C31E021912F3F89F0B5
:103D9000A22FA295AF70B0E090968C9190E02F701A
:103DA00002C0959587952A95E2F780FD02C0832F82
:103DB00001C080E0582A330F8E169F0631F7D801D4
:103DC0008C918F3F11F00E94991CB0EABA95F1F7DF
:103DD000F60150820F5F1F4FFFEFCF1ADF0A601608
:103DE000710609F0B2CF48E050E0B7018EEC91E0E7
:103DF0000E946A34892B99F088E0F701AEECB1E0BB
:103E000001900D928A95E1F781E0809347040E942A
:103E10001B249093460480934504F12C27C0809185
:103E200047048823D1F30091D701809145049091F4
:103E300046040E940024059780F310E007521E4FAD
:103E400044E050E06EEC71E0C8010E946A34892BB6
:103E500009F40EC184E0EEECF1E0D80101900D927E
:103E60008A95E1F7FF24F394109247048091780635
:103E7000E091D701882309F477C019861A861B863A
:103E80001C860E2F10E007521E4F809173048A305B
:103E900058F44EEE5BE1BE01675F7F4FC8010E94A0
:103EA000581B882399F10AC08091480490914904D5
:103EB0000E940024843F914060F739C04AEC5CE1E5
:103EC000BE01675F7F4FC8010E94581B8823F1F035
:103ED0004DE85BE1BE01675F7F4FC8010E94581B40
:103EE0008823A1F0109273048091D60190E044E001
:103EF00050E0BE01675F7F4F87529E4F0E946A3439
:103F000021E020934E04892B01F5ACC0809173040D
:103F10008F3F19F08F5F80937304809173048A3010
:103F200018F30E941B2490934904809348048091C5
:103F30004E04882309F496C0FE01399684E0DF011F
:103F40001D928A95E9F710924E04E091D601F0E0B7
:103F5000E752FE4F89859A85AB85BC858083918326
:103F6000A283B38381E07FC0F0E0E752FE4F84E09C
:103F7000ACE5B4E001900D928A95E1F78CE594E010
:103F80000E94CA1580935B04809060049090610445
:103F9000A0906204B090630480914A0490914B0415
:103FA000A0914C04B0914D0488169906AA06BB0650
:103FB000B1F080924A0490924B04A0924C04B092CB
:103FC0004D040E940F24861A970AA80AB90A809203
:103FD000CA019092CB01A092CC01B092CD01809108
:103FE0006404282F217086958695E0906504D09012
:103FF0006604C090670400916D0410916E041092E5
:104000006E04112379F110FF17C0909158062223F6
:1040100039F091609093580660E00E94C32D0CC067
:104020009E7F909358060E94D1268091A4048160BF
:104030008093A4040E944C2B11FF06C020E04C2D5D
:104040006D2D8E2D0E94D32C12FF07C0002319F076
:104050000E94D82602C00E94D12613FF03C081E02F
:1040600080939F0480E08F292C96EFE00C94AB3274
:10407000F12CFACE80912302089508950F931F9397
:10408000CF93DF93EC0100E010E080914C01282FEA
:1040900030E00217130724F590914A019801290F87
:1040A000311DA901440F551F240F351F28553B4FC3
:1040B000869590E04C81081719071CF4442331F0D1
:1040C00002C0411103C040915B0601C040E0609115
:1040D0005A06809159060E94442C0F5F1F4FD5CF7E
:1040E0000E944C2B8C8190E00196817099278C83E3
:1040F000DF91CF911F910F910895A0E0B0E0E3E828
:10410000F0E20C9492328C01FC014481C42FD0E087
:104110009E01DE010E94D4339B01AC010E949F33BB
:104120006B017C01E0E2F0E0EC1BFD0BA5E5B0E0EB
:104130009B01AC010E949F334B015C019F01DF0199
:104140000E9417349B01AC010E94AA339B01AC0171
:104150002C0D3D1D4E1D5F1DC501B4010E94B233E3
:10416000C22FD22F2A3228F4F3E02F9F900111247E
:104170000DC025E530E02C1B3109C901880F991FBE
:10418000280F391F37FF02C02F5F3F4F3595279506
:10419000C22FC095F12C85E5E82EED1A80914C01D7
:1041A000F816C8F4F1FC02C08E2D01C08D2F90913D
:1041B0004A012F2D30E0290F311DA901440F551F51
:1041C000240F351F28553B4F4C2F60915A060E94F3
:1041D000442CF394E3CF0E944C2BF801848181118D
:1041E00002C091E003C0803219F49FEF9093470121
:1041F00090914701890FF8018483CDB7DEB7ECE0D9
:104200000C94AE321F93CF93DF93EC018C8181111C
:1042100009C081E08C831092A60492E0909346013D
:104220008093450180914A0190914B01891770F468
:10423000E82FF0E09F01220F331FE20FF31FE85534
:10424000FB4F1182108212828F5FF0CF10E06091DD
:104250004C011617C0F5E12FF0E070E0CF010E948D
:10426000FD3320914A01820F2091A604022E000CFA
:10427000330B90E0E217F307CCF020914601022EB9
:10428000000C330B2E173F078CF09C01220F331FBD
:10429000820F931F9C0128553B4F40915B06609114
:1042A0005A06809159060E94442C0BC0FC01EE0F67
:1042B000FF1F8E0F9F1FFC01E855FB4F11821082DC
:1042C00012821F5FC4CF0E944C2B80914501209128
:1042D000A604280F2093A60490914601980F90936E
:1042E000460119165CF4022E000C330B40914C0170
:1042F00050E0415051092417350734F081958093DF
:104300004501813009F41C82DF91CF911F910895FE
:10431000A0E0B0E0EEE8F1E20C949132EC018A8189
:1043200080FF03C0BB24BA9402C0BB24B3948C8129
:1043300081110DC081E0B81206C080914C018150FE
:104340008093A50402C01092A50481E08C83A12C67
:1043500046E3842E90904C01A91408F041C080914E
:104360004A01CA2CD12C8601080F111DC801880FE3
:10437000991F080F191F08551B4FF8011182108251
:10438000128234E0E32EF12C712C8091A504870D6C
:1043900087332CF0682D0E94EF33892F02C087FDF0
:1043A000890D082E000C990BC816D90691F480913E
:1043B0005B068E9DA0018F9D500D1124559547954C
:1043C00055954795980160915A06809159060E942B
:1043D000442C7B0CF1E0EF1AF108B9F6A394BACFA4
:1043E0000E944C2B8091A50491E0B9120EC081115E
:1043F00007C080914C0181508093A5041C820FC09E
:1044000081508093A504BC820AC090E0019660911F
:104410004C0170E00E94FD338093A5048C83CDB7DE
:10442000DEB7EDE00C94AD32FF920F931F93CF9364
:10443000DF93EC01F12C0FEF10E060914C01F616C8
:10444000F0F480914A012F2D30E0280F311DC90171
:10445000880F991F280F391F28553B4F70E0C8015E
:104460000E94FD33962F8C8140915B0660915A0625
:10447000F99E800D11240E94442CF394DECF0E94FB
:104480004C2B9A818C8190FF02C08F5F01C08150BC
:104490008C83CDB7DEB7E5E00C94B5322F923F9216
:1044A0005F926F927F928F929F92AF92BF92CF92C4
:1044B000DF92EF92FF920F931F93CF93DF93FC0154
:1044C0006280548081E08483E3EAFCE07490E2E25D
:1044D000FDE0E491C0915B06C695C158D0E0CC0FD9
:1044E000DD1F2D2E3324812C75E0972EAA24AA944B
:1044F000B12CE719EE2EF12C80914C01881608F0B2
:1045000098C0C82CD12C22E0261568F09C9CF001A4
:104510009D9CF00D1124E65BFA4F80915906808333
:1045200080915A06818351100AC09C9CF0019D9C89
:10453000F00D1124E65BFA4F1382128260C09C9C3E
:1045400080019D9C100D1124E801C65BDA4F8B8120
:104550008823F9F081508B832FEF829FC0011124B3
:104560006C8170E00E947832FB01FF27ED55F34F1C
:104570008491E82FE7192FEFE29FC0011124B701C2
:104580000E94783280915B06689FB00111247A8383
:1045900036C00E940F33B5010E94FD33821593058A
:1045A00074F582E0861588F40E940F33B5010E94ED
:1045B000FD3388830E940F3320915A062695622F7F
:1045C00070E00E94FD33280F29839C9CF0019D9C84
:1045D000F00D1124E65BFA4F128280915B06843164
:1045E00020F0893C18F088EC01C084E19C9CF0012B
:1045F0009D9CF00D1124E65BFA4F848383838091A8
:104600004A019601280F311DC901880F991F280FF3
:10461000391F28553B4F9C9CF0019D9CF00D1124A7
:10462000E65BFA4F4281618180810E94442C839431
:1046300063CF0E944C2BDF91CF911F910F91FF9080
:10464000EF90DF90CF90BF90AF909F908F907F9032
:104650006F905F903F902F900895A3E0B0E0E3E368
:10466000F3E20C949A328C018091A70481110AC064
:104670009E012F5F3F4F48E76FEF0E94442C8A81D5
:104680008093A704F8018481813051F028F08230B2
:1046900061F44091A7040AC08091A70440E007C0DC
:1046A0006091A70440E080E003C040E080E060E06B
:1046B0000E94982BF801848190E0019663E070E0FD
:1046C0000E94FD3384832396E4E00C94B632CF93AA
:1046D000DF93EC01E8E5F6E0438162818C810E9482
:1046E000AB2D8C818F5F8C83DF91CF910895CF9319
:1046F000DF93EC01EC81F0E0ED55F34F4491E8E5F8
:10470000F6E0628181810E94AB2D8C818F5F8C836A
:10471000DF91CF9108950F931F93CF93DF938B0178
:10472000EA0190912E02943079F58F708093E90020
:104730008FEF9091E800815095FD06C095ED9A9518
:10474000F1F700008111F5CF8091E80085FF1CC0D2
:104750000E94381A882361F08091E8008E77809358
:10476000E80012C0F80181918F018093F100219738
:10477000209791F38091E80085FDF4CF8091E800C7
:104780008E778093E800E4CFDF91CF911F910F9156
:10479000089587E797E790930108809300089AE0CF
:1047A00088E10FB6F894A895809360000FBE9093AF
:1047B0006000FFCF78941F920F920FB60F921124D2
:1047C0008F939F93AF93BF938091830690918406BC
:1047D000A0918506B09186060196A11DB11D80931A
:1047E000830690938406A0938506B0938606BF91B6
:1047F000AF919F918F910F900FBE0F901F901895C2
:104800009C014FB7F8948091830690918406A09103
:104810008506B09186064FBF821B930B08952FB774
:10482000F89460918306709184068091850690913A
:1048300086062FBF08952FB7F89480918306909134
:104840008406A0918506B09186062FBF08951F9219
:104850000F920FB60F9211248F939F93AF93BF9334
:1048600080918206811113C0809183069091840605
:10487000A0918506B09186064196A11DB11D809339
:10488000830690938406A0938506B0938606BF9115
:10489000AF919F918F910F900FBE0F901F90189521
:1048A00090911901992321F09091800697FD03C002
:1048B000E4E7F4E01DC0E82FE695E695E695EE31D5
:1048C000E0F4F0E0E458FB4F877021E030E0A9010C
:1048D00002C0440F551F8A95E2F7CA018095928164
:1048E000892382830895319654E0EA37F50729F049
:1048F00092818913F8CF1282F6CF08959091190111
:104900009923D1F09091800697FF16C0E82FE69585
:10491000E695E695EE3140F5F0E0E458FB4F877000
:1049200021E030E0A90102C0440F551F8A95E2F74B
:10493000CA019281892B16C0A6E7B4E0EFEF90E0A0
:104940002D91821789F0EF3F19F4211101C0E92F51
:104950009F5F9630A9F7EF3F39F00E2E000CFF0B4A
:10496000EC58FB4F828308950895A3E0B0E0EBEB91
:10497000F4E20C949C3220917E0630917F06281739
:104980003907A1F090937F0680937E06E0917C0624
:10499000F0917D06309751F024E029839B838A8330
:1049A0000084F185E02DCE01019609952396E2E081
:1049B0000C94B832A3E0B0E0E0EEF4E20C949C3248
:1049C00020917A0630917B0628173907A1F0909341
:1049D0007B0680937A06E0917C06F0917D06309705
:1049E00051F023E029839B838A830084F185E02DA5
:1049F000CE01019609952396E2E00C94B83280919D
:104A00007806882359F0E0917C06F0917D06309776
:104A100029F00190F081E02D0995089580E0089536
:104A2000EF92FF920F93CF93DF93C42FD22FFC010D
:104A300085818823B1F0409377060E941B249093D0
:104A400076068093750680E28C0F883008F064C08B
:104A5000C77081E001C0880FCA95EAF70E942B2E2B
:104A60005BC08091770648134BC08091750690918A
:104A700076060E940024883C910508F041C0CD17BD
:104A8000C9F080E28C0F883040F4C77081E001C02B
:104A9000880FCA95EAF70E94242E80E28D0F883095
:104AA00048F481E09D2F977001C0880F9A95EAF72E
:104AB0000E942B2E093319F0E12CF12C03C080E564
:104AC000E82EF12C802F0E94542FE114F10451F0B4
:104AD0008FE99FE00197F1F700C0000091E0E91A2B
:104AE000F108F3CF802F0E94212F80E28D0F8830B4
:104AF00098F4D77081E001C0880FDA95EAF70AC010
:104B000080E28C0F883040F4C77081E001C0880FCC
:104B1000CA95EAF70E94242EDF91CF910F91FF9062
:104B2000EF9008950E941B2420917106211104C06A
:104B300020917206222321F090936E0680936D06D9
:104B400020917306211104C020917406222321F0C4
:104B500090936C0680936B06E0917C06F0917D0645
:104B6000309749F082E080936F060680F781E02D50
:104B70008FE696E00995089580916A0680FD16C03B
:104B800081FD16C082FD18C080916906882391F0CE
:104B9000883290F428E0829FC001112468E270E01E
:104BA0000E94FD33862F672B29F007C082E008950D
:104BB00084E0089581E0089588E0089580916A0670
:104BC00080FD14C081FD14C082FD16C0809168066E
:104BD000882381F08E3180F420E5829FC00111246A
:104BE0006EE170E00E94FD33862F089584E1089500
:104BF00088E2089588E0089580E50895282F35EB30
:104C00002303C001112497FF03C08058910902C0FB
:104C100080589F4F892F089580916706882349F017
:104C2000809166068D7D809366060E94BA27109259
:104C300067060895CF93E82F2091410430914204F4
:104C40002B53324040913802642F70E0C9010E941A
:104C50007832481B842FEE2351F066E00E94E33344
:104C6000C82FC150A8F080E20E943715FACFA901E1
:104C7000480F511D4115524018F080E020E030E00F
:104C8000280F311D255C3D4F309342042093410491
:104C9000CF910895EF92FF920F931F93CF93DF93DD
:104CA000EC017B0164E670E088E70E94CE2F8C0166
:104CB000EC0EFD1ECE15DF0541F40E94B83081E0F8
:104CC0000115110569F080E00BC017FDF6CFFE015C
:104CD000849164E670E00E9441308C012196EACF15
:104CE000CDB7DEB7E6E00C94B432809165069091C2
:104CF0006406882389F0992369F062E070E085EA10
:104D00009DE00E944A26811103C0809164060895A7
:104D1000109264069091640681E08927089580913D
:104D200065068823F9F00E940F24DC01CB01805A2C
:104D30009541AF4FBF4F8093600690936106A0935B
:104D40006206B09363068091640681110BC062E035
:104D500070E083EA9DE00E944A26882319F081E0F2
:104D6000809364068091640608959091580690FFA0
:104D700005C096959695981748F003C0811106C016
:104D800090E0961718F40E94182E089561E00E9492
:104D9000C32D0895882311F0FA0101C0FB01099584
:104DA0000895E2EAF4E011828281846082830895AA
:104DB000609158066695669570E04BE050E08AE396
:104DC00091E00E945D34892B19F481E08093A30463
:104DD0000E94591E90939D0480939C048091A4048A
:104DE00084608093A40408952091DF069091A60624
:104DF00057E02917A9F030E0529FF001539FF00DC2
:104E00001124E955F94F7181761306C0708178132A
:104E100003C07581741306C02F5F3F4F2770E9CF21
:104E200080E0089581E00895A8E0B0E0EAE1F7E2CB
:104E30000C949C3266EE7EEF80E090E00E946A3334
:104E400060E082E090E00E944C3381E090E090933B
:104E50000C0780930B0761E083E090E00E944C33E5
:104E600060E074E184E090E00E946A3360E086E0F4
:104E700090E00E944C336FEF87E090E00E944C334B
:104E800040E050E0BA0188E090E00E945E3360E0CC
:104E900084E290E00E944C3360E087E190E00E9461
:104EA0004C3360E08CE090E00E944C3360E08DE099
:104EB00090E00E944C3319821A821B821C821D8250
:104EC0001E821F82188648E050E068E170E0CE0143
:104ED00001960E943C3340E050E0BA0180E290E04D
:104EE0000E945E3340E050E0BA018FE090E00E9403
:104EF0005E3340E050E0BA0183E190E00E945E330F
:104F00002896E2E00C94B83280910A078111109241
:104F10000A070895CF93C091090780916606C82BB0
:104F200080910A078823E1F0C82B8091190188231A
:104F300041F08091800687FF04C02EE18EE794E067
:104F400003C026E086E794E0FC0180E0215028F0D1
:104F500091919923D9F38F5FF9CF81110E94842712
:104F60008C2FCF9108958095909109078923809384
:104F70000907089580911901882351F180918006D5
:104F800087FF26C00E948A2780937D0440E250E07C
:104F900061EE76E08CE794E00E946A34892BD9F1C7
:104FA00080E2ECE7F4E0A1EEB6E001900D928A9584
:104FB000E1F7E0917C06F0917D06309761F186E0A3
:104FC00080937C040480F581E02D8CE794E022C07E
:104FD0000E948A278093740448E050E061E077E003
:104FE00084E794E00E946A34892BA9F088E0E4E722
:104FF000F4E0A1E0B7E001900D928A95E1F7E0912D
:105000007C06F0917D06309731F00280F381E02D2F
:1050100084E794E0099508958091DF069091A606B3
:10502000891719F08F5F8770FBCF0895CF93DF93B7
:105030008091A50682958F7009F04EC08091A406DC
:10504000882309F449C08091DF064091A60650915B
:10505000A00660919F06C091A106D091A20677E0BC
:105060008417D1F190E0789FF001799FF00D112421
:10507000DF01A955B94F14962C911497222349F1B9
:1050800011962C911197251324C02C91261321C021
:1050900015962C91159721111CC012962D913C91BB
:1050A00013972C1B3D0B283C310598F48091A506E5
:1050B0008F7080618093A506E355F94F80818F70D2
:1050C000806180838FE996E00E9440080E940C284E
:1050D00003C001968770C4CFDF91CF910895A0E0FF
:1050E000B0E0E5E7F8E20C9495327C010091EF0125
:1050F0001091F00180910B0790910C07082B192B50
:10510000CFE0D0E0CC24C394D12CC6010C2E02C039
:10511000880F991F0A94E2F780239123892B21F4A9
:10512000219798F7B12C09C0BC2EB7018C2F0E9493
:105130001F1D0E943C1D019799F38B2DCDB7DEB743
:10514000E9E00C94B132CF93DF93EC010E946F2819
:10515000BE010E941F1D0E943C1DDF91CF9108954A
:10516000FC0124812223D9F0808191810E94A3280F
:1051700092959F70963079F010F4925001C09A5039
:10518000923068F4803F69F018F4883E40F409C01A
:10519000843F29F406C0883E20F0813F11F080E072
:1051A000089581E00895A4E1B0E0E9EDF8E20C94FF
:1051B00092328C0186E0F801DE011F9601900D927B
:1051C0008A95E1F7F8018481E5809FE9892E96E0D0
:1051D000992E9091A306911120C0882309F463C1F0
:1051E000EE2009F442C0C8010E94B028F82E88239E
:1051F000E1F187E0F801D40101900D928A95E1F781
:105200008091A306813031F480919F069091A00691
:105210000E94A3280E94162848C1F801D080C180AE
:10522000A280B380F090A4062091A1063091A2063E
:10523000FF2009F4E7C0A501421B530B483C510570
:1052400008F09DC0882309F430C18091A506282F5D
:10525000207F9091A006222361F09C1509F460C084
:10526000C8010E94B028811163C0C8010E94400893
:105270001AC19C1113C090919F069D110FC0E1109F
:105280000DC08F7080618093A5068FE996E00E9423
:1052900040088091A506F801868303C1E1103AC059
:1052A00040E06C2D8D2D0E94F42640E06C2D8D2D5C
:1052B0000E94F426E82E8111F4C0DF86C88A8F850B
:1052C00098890E94A328292F22952F70243020F43A
:1052D0009F70223028F009C02A50223080F014C07C
:1052E000992349F0811107C013C0992321F0F801D7
:1052F0009681907F69F0805E883030F409C0803FED
:1053000038F0815F833020F0C8010E944008EF2C04
:10531000FE2CCBC08091A50681608093A506C1C0FC
:1053200090919F069D119CCFE1109ACFF80198C0F3
:10533000EE2009F49ACF2091A506822F82958F70D6
:1053400090E002978CF080919F069091A00699873B
:105350008887BB86AA868091A3068C871D862E87A8
:10536000CE0108960E94400887E0F801AFE9B6E058
:1053700001900D928A95E1F70E94162894C09091B1
:10538000A506292F207F51F48FE996E00E9440085E
:1053900087E0F40111928A95E9F783C0882309F424
:1053A00084C08091A0068C110CC080919F068D1145
:1053B00008C0E11006C0F8019683C8010E944008A9
:1053C0006AC0C8010E94B028882309F44ECFEE209D
:1053D00009F44BCF2091A506822F82958F7090E023
:1053E000029714F280919F069091A0069A83898378
:1053F000BC82AB828091A3068D831E822F83CE0157
:105400000196B0CFA21AB30AF8ECAF16B10408F0B7
:1054100042C0882309F447C0FE2CEE2009F425CFB2
:105420008091A0068C1129C080919F068D1125C006
:105430009091A50690FD18C0892F82958F70282F16
:1054400030E02115310581F0F80196832F303105C8
:1054500041F08F5F982F9295907F86818F70892B76
:105460008683C8010E94400887E0F801AFE9B6E0F2
:1054700001900D928A95E1F718C0C8010E94B028EA
:10548000811172CF8091A50681608093A506C80125
:105490000E9440080AC087E0F40111928A95E9F75A
:1054A00004C0F12C02C0FF24F3948F2D6496ECE02D
:1054B0000C94AE32983078F5863068F5E82FF0E03D
:1054C00086E0989FE00DF11D11249E2F977083E0D8
:1054D000F695E7958A95E1F7EE0FFF1FEE0FFF1F98
:1054E000E957F94F40E050E080E0219130E0092E8B
:1054F00002C0369527950A94E2F721703327042ECF
:1055000001C0220F0A94EAF7822B4F5F5F4F4430AD
:10551000510559F7089580E00895983088F5863050
:1055200078F5E82FF0E086E0989FE00DF11D11245A
:105530008E2F877051E001C0550F8A95EAF783E0FE
:10554000F695E7958A95E1F7EE0FFF1FEE0FFF1F27
:10555000E957F94F20E030E070E04081CB01022EA6
:1055600002C0969587950A94E2F781708195842709
:105570008523842781932F5F3F4F2430310569F7BE
:1055800008959093F0018093EF01089521E030E0B9
:1055900002C0220F331F8A95E2F720953095809143
:1055A000EF019091F001822393230E94C12A089574
:1055B0009091E006809589238093E006282F27703C
:1055C00069F4981759F09091810692FF07C086956B
:1055D000869586950E94C62A1092E00608959091BD
:1055E000810692FB222720F9281779F080FB92F997
:1055F00090938106609180067091810684E090E02E
:105600000E946A3382E00E94D82A089521E030E0A7
:1056100002C0220F331F8A95E2F78091EF0190912B
:10562000F001822B932B0E94C12A089590930C07BE
:1056300080930B0708951092090780911901882320
:1056400041F08091800687FF04C08EE1EEE7F4E030
:1056500003C086E0E6E7F4E0DF011D928A95E9F7F2
:1056600080E090E00E94DA2480E090E00E94B5247F
:10567000109266060E94BA27EFE6F6E086E0DF01A8
:105680001D928A95E9F710926806109269061092A9
:105690006A060E949225089530914901809158062A
:1056A00080FF16C0E091480163E0E69FF0011124FD
:1056B000E855FB4F539A8BB1877F9BB198602FB70A
:1056C000F894AF0163E0369F400D511D112414C0C2
:1056D00080914A0190914B01891720F7E82FF0E063
:1056E000AF01440F551FE40FF51FE855FB4F118222
:1056F000108212828F5FF0CFE417F50789F03191A5
:1057000068E09BB9000000C037FF8BB9330F000081
:1057100000C000C000C08BB900C06A9591F7ECCF03
:105720002FBF8FE594E00197F1F700C000000895C6
:105730009091580690FF16C090914A0120914B011C
:10574000921770F4E92FF0E0DF01AA0FBB1FEA0FF8
:10575000FB1FE855FB4F8183608342839F5FF0CF3F
:105760000E944C2B089580915806282F2695269547
:1057700030E02115310519F48370846005C02B32A7
:10578000310524F08370886A8093580680915B0607
:10579000893718F088E780935B060895A0E0B0E0B1
:1057A000E4EDFBE20C94923249015A016B017C0159
:1057B0000E94B32B8401A4016A2D7B2D88E090E028
:1057C0000E945E3394014A2D5B2DB601C70100E2B1
:1057D0000E944134622F84E290E00E944C33CDB7A6
:1057E000DEB7ECE00C94AE3280915C06882319F0B1
:1057F000815080935C062091580630915906409163
:105800005A0650915B0660915C0670915D0680912E
:105810005E0690915F060E94CE2B089580915C06F3
:10582000833018F48F5F80935C0620915806309186
:10583000590640915A0650915B0660915C06709142
:105840005D0680915E0690915F060E94CE2B0895C2
:10585000E8E5F6E025E0208311828FEF828388E778
:1058600083831482A2EAB4E012968C91129783602B
:1058700012968C93758130E04FEF58E760E0868197
:1058800097810E94CE2B0895A0E0B0E0EAE4FCE20C
:105890000C949432E82EF62EE901493708F048E7D7
:1058A000E42FF0E0F11006C0E955F24FE4914E2FDD
:1058B0002E2F71C00F2D10E0E955F24F4491F42FB7
:1058C000C42ED12C26E0E29EC00111242FEF30E03F
:1058D000B9010E9478325BEA5603C001579F900DD0
:1058E00011248E0D911D8E0D911D582F550F580F9F
:1058F000D901A01BB10BAC9DC001AD9D900DBC9D0D
:10590000900D1124E92FF59ED0011124AB2FBB2758
:105910007901EA1AFB0AEC9CD001ED9CB00DFC9CCD
:10592000B00D11245901A51AB108A09E7001A19EC5
:10593000F00CB09EF00C1124EF2CFF242E193F091F
:105940002C9D80012D9D100D3C9D100D1124212FAB
:105950006230710591F048F461157105E1F0613034
:105960007105B9F4242F4B2F16C06430710569F00E
:1059700040F06630710579F00CC0242F492FE12FDB
:105980000AC0492FEF2F2B2F06C0292FE42F412FBC
:1059900002C0292FEB2F49832883EA83CDB7DEB7D6
:1059A000EAE00C94B032A3E0B0E0E9EDFCE20C9444
:1059B0009532082FE62EF42ED22E9091580690FFA5
:1059C0007EC020915906281308C080915A0686137C
:1059D00004C080915B06841729F08091A404826042
:1059E0008093A404E92FE695E695AE2FB0E0A65685
:1059F000BE4F8C918093A2049C7F943071F49E01E1
:105A00002F5F3F4F4F2D6E2D802F0E94442C4B81D6
:105A100069818A810E94982B3CC0823019F4F090F1
:105A20005B0637C08630A1F1893091F1893189F563
:105A3000E9518E2F8170C82EE695F0E0E955F14FBF
:105A40001491B12C60914C01B616F8F4B19EC001CE
:105A5000112470E00E947832802FC11002C0860F9E
:105A600001C0861B90914A012B2D30E0290F311D7A
:105A7000A901440F551F240F351F28553B4F4F2DAB
:105A80006E2D0E94442CB394DDCF0E944C2B01C09C
:105A9000022F00935906E0925A06F0925B06DD2031
:105AA00071F02091580660915C0670915D06302F70
:105AB000A70180915E0690915F060E94CE2B2396EF
:105AC000E9E00C94B132E8E5F6E0438121E1421BC4
:105AD00008F440E021E0628181810E94D32C089586
